:100000000C94B00B0C94D80B0C94D80B0C94D80B0C
:100010000C94D80B0C94D80B0C94D80B0C94D80BD4
:100020000C94D80B0C94D80B0C94D80B0C94D80BC4
:100030000C94D80B0C94D80B0C94D80B0C94D80BB4
:100040000C94821E0C94D80B0C94F21E0C94CC1EB3
:100050000C94D80B0C94D80B0C94D80B0C94D80B94
:100060000C94241F0C94D80B00000000003E5B4F42
:100070005B3E3E6B4F6B3E1C3E7C3E1C183C7E3C08
:10008000181C577D571C1C5E7F5E1C00183C180016
:10009000FFE7C3E7FF0018241800FFE7DBE7FF30A6
:1000A000483A060E2629792926407F050507407F14
:1000B00005253F5A3CE73C5A7F3E1C1C08081C1C87
:1000C0003E7F14227F22145F5F005F5F06097F017D
:1000D0007F006689956A606060606094A2FFA29468
:1000E00008047E040810207E201008082A1C080836
:1000F0001C2A08081E101010100C1E0C1E0C303884
:100100003E3830060E3E0E06000000000000005F84
:1001100000000007000700147F147F14242A7F2AA0
:100120001223130864623649562050000807030062
:10013000001C2241000041221C002A1C7F1C2A08AE
:10014000083E080800807030000808080808000011
:1001500060600020100804023E5149453E00427F85
:10016000400072494949462141494D331814127FD4
:100170001027454545393C4A494931412111090774
:100180003649494936464949291E000014000000F5
:1001900040340000000814224114141414140041C7
:1001A00022140802015909063E415D594E7C121184
:1001B000127C7F494949363E414141227F414141BC
:1001C0003E7F494949417F090909013E4141517337
:1001D0007F0808087F00417F41002040413F017FA8
:1001E000081422417F404040407F021C027F7F0470
:1001F00008107F3E4141413E7F090909063E4151B9
:10020000215E7F09192946264949493203017F01A8
:10021000033F4040403F1F2040201F3F4038403FA9
:10022000631408146303047804036159494D4300BF
:100230007F4141410204081020004141417F0402F6
:10024000010204404040404000030708002054548D
:1002500078407F284444383844444428384444286B
:100260007F385454541800087E090218A4A49C78BE
:100270007F0804047800447D40002040403D007F1A
:100280001028440000417F40007C047804787C08FA
:100290000404783844444438FC18242418182424CE
:1002A00018FC7C08040408485454542404043F44B3
:1002B000243C4040207C1C2040201C3C4030403CE2
:1002C00044281028444C9090907C4464544C440042
:1002D00008364100000077000000413608000201A6
:1002E0000204023C2623263C1EA1A161123A404092
:1002F000207A38545455592155557941225454780F
:1003000042215554784020545579400C1E527212A7
:100310003955555559395454545939555454580030
:1003200000457C410002457D420001457C407D1234
:1003300011127DF0282528F07C5455450020545496
:100340007C547C0A097F4932494949323A44444441
:100350003A324A4848303A4141217A3A424020787C
:10036000009DA0A07D3D4242423D3D4040403D3C7D
:1003700024FF2424487E4943662B2FFC2F2BFF09A2
:1003800029F620C0887E0903205454794100004496
:100390007D413048484A32384040227A007A0A0A81
:1003A000727D0D19317D2629292F282629292926F4
:1003B00030484D4020380808080808080808382F39
:1003C00010C8ACBA2F102834FA00007B00000814C3
:1003D0002A142222142A14085500550055AA55AA99
:1003E00055AAFF55FF55FF000000FF00101010FF39
:1003F00000141414FF001010FF00FF1010F010F094
:10040000141414FC001414F700FF0000FF00FF1484
:1004100014F404FC141417101F10101F101F1414D0
:10042000141F00101010F0000000001F101010101A
:100430001F10101010F010000000FF10101010100E
:1004400010101010FF10000000FF140000FF00FF4C
:1004500000001F10170000FC04F4141417101714E8
:1004600014F404F40000FF00F7141414141414140A
:10047000F700F7141414171410101F101F1414147D
:10048000F4141010F010F000001F101F0000001FE7
:1004900014000000FC140000F010F01010FF10FF1A
:1004A000141414FF141010101F00000000F010FFAF
:1004B000FFFFFFFFF0F0F0F0F0FFFFFF0000000093
:1004C00000FFFF0F0F0F0F0F3844443844FC4A4A17
:1004D0004A347E02020606027E027E0263554941CC
:1004E000633844443C04407E201E2006027E020203
:1004F00099A5E7A5991C2A492A1C4C7201724C3017
:100500004A4D4D303048784830BC625A463D3E49ED
:100510004949007E0101017E2A2A2A2A2A44445F91
:10052000444440514A444040444A51400000FF0185
:1005300003E080FF000008086B6B08361236243693
:10054000060F090F060000181800000010100030F8
:1005500040FF0101001F01011E00191D1712003C80
:100560003C3C3C0000000000EF03038002CF03008E
:10057000C130ED0464031281E803850078CB0539AE
:100580002C003402F70120EA020000C00123C1015F
:1005900010C5023E28C701863601483701003A01DE
:1005A00055B1020018B603088227F20100260101A6
:1005B000E00F0F312B0C0E084EF1370710030E0918
:1005C00000E10F000E1403110731C148080F0C3170
:1005D000360F11802980007D007D007D00FA007DAE
:1005E000007D00FA007D007D00FA007D00FA007DAC
:1005F000007D007D00FA007D007D0065047D007DAA
:10060000007D00FA007D007D00FA007D007D00FA8B
:10061000007D00FA007D007D007D00FA007D007DF8
:100620000065047701FA007D007D007D00E8037716
:1006300001FA007D007D007D00BB00BB0065047DEC
:10064000007D007D0071027D007D007D0071027DD6
:10065000007D007D00FA0077017D007D007D007740
:10066000017D00FA007D007D007D00E8037701FA3E
:10067000007D007D007D00BB007D00A3047D007D2A
:10068000007D00FA007D007D00FA007D00FA00FA8E
:1006900000FA007D007D007D00E8037701FA00FA92
:1006A00000FA007701FA007D007D000401FA007D68
:1006B00000FA007D007D007D00FA00FA00FA007D5E
:1006C00000FA0077017D007D007D00FA007D007D4D
:1006D00000FA007D007D00FA007D007D00FA007DBB
:1006E000007D007D00770177016B03D007E80330C0
:1006F00075B80B3075B80BD007B80BD007B80BB86E
:100700000B00003075307500007D007D007D007DA0
:10071000007D007D007D007D00FA0077017D00FAFC
:100720000077017D00FA00BC007D007D007D007D2A
:10073000007D007D007D007D00FA0077017D00FADC
:1007400000FA007D007D00F4017D007D007D007DCC
:10075000007D007D007D007D00FA0038017D00FAFB
:100760000077017D00FA00FA007D007D007D007DAC
:10077000007D007D007D007D00FA0077017D00FA9C
:1007800000FA007D007D00FA007D007D007D007D87
:1007900000FA00FA007D007D00FA00FA007D007D7D
:1007A00000FA00FA007D007D00FA00FA007D007D6D
:1007B00000F4010B026E021003BA024B02D2019F39
:1007C000010B026E024B02D20188010B026E021075
:1007D00003BA024B02D2013F030B026E021003BAAE
:1007E000024B02D2019F010B026E024B02D2018822
:1007F000010B026E021003BA024B02D2013F03004A
:10080000000601260137015D018801000088015DB5
:10081000015D0137015D0137012601000006012657
:100820000137010000260137015D01000037015D3D
:10083000018801880100008801D201EE0100000654
:1008400001260137015D018801000088015D015D1D
:100850000137015D0137012601000006012601373D
:1008600001260106013701000088015D01370126DC
:10087000012601E900060100000000000000000060
:10088000009F01880188015D0188015D015D01E92A
:1008900000E900E900D2019F0188015D015D013797
:1008A0000100000601260137012601060137012655
:1008B0000106015D01370126015D01E900E900E95A
:1008C00000F7000601260100000000F7000000DC30
:1008D000000000DC000000DC000000000000000060
:1008E000000000000093026E0293026E029302EE7B
:1008F000014B020B02B8010000B801EE010000EE4E
:10090000010B02000093026E0293026E029302EE4C
:10091000014B020B02B8010000B801EE0100000B10
:1009200002EE01B80193026E0293026E029302EE90
:10093000014B020B02B8010000B801EE010000EE0D
:10094000010B02000093026E0293026E029302EE0C
:10095000014B020B02B8010000B801EE0100000BD0
:1009600002EE01B8010000EE010B024B02930200FF
:1009700000BA0293024B02000093024B020B0200EA
:10098000004B020B02EE0100007D007D007D00FAAD
:10099000007D007D00FA007D007D00FA007D00FAF8
:1009A000007D007D007D00FA007D007D00E803FAF7
:1009B000007D007D007D00FA007D007D00FA007D55
:1009C000007D00FA007D00FA007D007D007D00FAC8
:1009D000007D007D005F05EE027D007D007D007DD5
:1009E000007D007D007D007D007D007D007D007D1F
:1009F000007D007D007D007D007D007D007D007D0F
:100A0000007D007D007D007D007D007D007D007DFE
:100A1000007D007D007D007D007D007D007D007DEE
:100A2000007D007D007D007D007D007D007D007DDE
:100A3000007D007D007D007D007D007D007D007DCE
:100A4000007D007D007D007D007D007D007D0077C4
:100A500001FA007D007D007D007D007D007D007D30
:100A6000007D007D007D007D007D007D007D007D9E
:100A7000007D007D007D007D007D007D007D007D8E
:100A8000007D007D007D007D007D007D007D007D7E
:100A9000007D007D007D007D007D007D007D007D6E
:100AA000007D007D007D007D007D007D007D00FAE1
:100AB00000FA00FA007D007D007D007D007D007D54
:100AC000007D0004017D007D007D007D007D007DB6
:100AD000007D007D007D007D00FA007D007D00FA34
:100AE000007D007D007D00FA007D007D00FA007D24
:100AF000007D007D007D007D007D007D007D007D0E
:100B0000007D007D007D007D007D007D007D007DFD
:100B1000007D007D007D007D007D007D007D007DED
:100B2000003E003E003E003E003E003E003E003ED5
:100B300000EE02D007E8033075B80B3075B80BD063
:100B400007B80BD007B80BB80BFA00FA00FA007D13
:100B5000007D007D007D00FA00FA00FA007D007D36
:100B6000007D007D00FA00FA00FA007D007D007D26
:100B7000007D00FA00FA00FA007D007D007D007D16
:100B8000007D007D007D007D007D007D007D007D7D
:100B9000007D007D007D007D007D007D003E003EEB
:100BA000003E003E00FA00FA00FA00FA007D007DE7
:100BB000007D007D007D007D007D003E003E007DCB
:100BC000007D003E003E003E003E00FA00FA00FAC2
:100BD00000FA00FA00FA00FA007D007D00FA00FA3F
:100BE00000FA00FA00FA00FA00FA007D007D00FA2F
:100BF00000FA00FA007D007D00FA00FA00FA00FA1F
:100C000000FA00FA00FA007D007D00FA00FA00FA0E
:100C100000FA00FA007D007D007D007D007D007DF2
:100C2000007D007D007D007D00FA00FA007D007DE2
:100C300000FA00FA00FA00FA00FA00FA00FA007D61
:100C4000007D007D007D00FA00FA00FA007D007D45
:100C5000007D007D00FA00FA00FA00FA00F401FAC3
:100C600000F401F401FA00FA00F401FA00FA00F4C9
:100C700001FA00FA00F4013E00FA00EE0277017D6D
:100C8000007D007D0077017D007D007D0077017D86
:100C900000FA00AF0277017D007D007D0077017DC5
:100CA00000FA00EE02EE0277017D007D007D007704
:100CB000017D007D007D0077017D00FA00EE027766
:100CC000017D007D007D0077017D00FA00EE02B518
:100CD000017D00FA0077017D00FA0077017D00FABE
:100CE00000E803E80383009C00C400AF0093007594
:100CF00000680083009C0093007500620083009CE4
:100D000000C400AF00930075006800750083009C6C
:100D100000C400AF0093007500680083009C00933E
:100D2000007500620083009C00C400AF0093007552
:100D30000068000000830083008300830083008339
:100D4000008300830083008300830083008300838B
:100D50000083008300620062006200620062006241
:100D60000062006200620062006200620062006273
:100D7000006200620068006800680068006800683F
:100D800000680068007500750075007500750075D5
:100D900000750075009C009C009C009C009C009CC1
:100DA000009C009C006200620062009C0093008333
:100DB000008300830083008300830083008300831B
:100DC000008300830083008300830083008300622C
:100DD0000062006200620062006200620062006203
:100DE00000620062006200620062006200620068ED
:100DF00000680068006800680068006800680075A6
:100E0000007500750075007500750075006800625A
:100E10000068006800680068006800680068006892
:100E2000007500750075007500750075007500751A
:100E3000009C009C009C009300930093008300831F
:100E40000083007500750075006800680068006820
:100E5000006800680068006800750075007500751E
:100E60000075007500750075006200620062006226
:100E70000057005700750093006200750000009C49
:100E800000AF00C400AF009C00620000000000F74B
:100E9000000000DC000000B8010000B80100000004
:100EA00000AF00A50000006E00AF00A5000000AF7D
:100EB00000A50000006E00AF00A50000000000DCEF
:100EC00000C40000000000DC00C4000000DC00C41E
:100ED000000000C400DC000000DC00C400A5008BA2
:100EE00000A500C4000000DC00AF0000006E006E32
:100EF000000000AF00A500A500A500A500000000AF
:100F000000A50000000000A500C400E900DC00E925
:100F100000DC00E900DC00C400AF00A500A500A5CE
:100F200000A500AF00C400DC00E9000601C4000613
:100F300001E900E900C4000601E900DC00E900263F
:100F4000010601E900E900DC00AF00E900DC00DC9B
:100F500000AF00E900DC00AF0000008300AF00DC60
:100F600000DC00C400A5008300A500C400DC00DC98
:100F700000C400B900C400B900C400E900E900DC05
:100F800000AF00E900DC00DC00AF00E900DC00831A
:100F900000DC00C400AF009300AF009300AF00DCA2
:100FA00000C400AF008300AF008300AF00AF00A516
:100FB00000930083008B009300A50083009C00A594
:100FC0000083009C00A50083009C00A50083000016
:100FD0000000000000000006014A01000000004A75
:100FE000019F01000000004A01000000000000060F
:100FF000014A01000000004A01000000000000005A
:101000000006014A01000000004A019F01000000A3
:10101000004A0100000000000006014A0100000033
:10102000004A010000000000008801000000005D8F
:1010300001000000004A01000000000E087D007D54
:1010400000FA007102EE027D00FA007D007D007D55
:10105000007D007D007D007D007D007D007D007DA8
:10106000007D007D007D007D007D007D007D007D98
:10107000007D007D007D007D006504E8037D007D2E
:10108000007D007D007D007D007D007D007D007D78
:10109000007D007D007D007D007D007D007D007D68
:1010A000007D007D007D007D007D007D007D007D58
:1010B000007D007D007D007D007D007D007D007D48
:1010C000007D007D007D007D007D007D007D007D38
:1010D000007D007D007D007D007D007D007D007D28
:1010E000007D007D007D007D007D007D007D007D18
:1010F000007D007701FA007D007D007D007D007D90
:10110000007D007D007D007D007D007D007D007DF7
:10111000007D007D007D007D007D007D007D007DE7
:10112000007D007D007D007D007D007D007D007DD7
:10113000007D007D007D007D007D007D007D007DC7
:10114000007D007D007D007D007D007D007D007DB7
:10115000007D00FA00FA00FA007D007D007D007D30
:10116000007D007D007D007D007D007D007D007D97
:10117000007D007D007D007D007D007D00FA007D0A
:10118000007D00FA007D007D007D00FA007D007D7D
:1011900000FA007D007D007D007D007D007D007DEA
:1011A000007D007D007D007D007D007D007D007D57
:1011B000007D007D007D007D007D007D007D007D47
:1011C000007D007D003E003E003E003E003E003EB1
:1011D000003E003E00EE02D007E8033075B80B3049
:1011E00075B80BD007B80BD007B80BB80BFA00FADC
:1011F00000FA007D007D007D007D00FA00FA00FA13
:10120000007D007D007D007D00FA00FA00FA007D7F
:10121000007D007D007D00FA00FA00FA007D007D6F
:10122000007D007D007D007D007D007D007D007DD6
:10123000007D007D007D007D007D007D007D007DC6
:10124000003E003E003E003E00FA00FA00FA00FABE
:10125000007D007D007D007D007D007D007D003EE5
:10126000003E007D007D003E003E003E003E00FA54
:1012700000FA00FA00FA00FA00FA00FA007D007D98
:1012800000FA00FA00FA00FA00FA00FA00FA007D0B
:10129000007D00FA00FA00FA007D007D00FA00FAF5
:1012A00000FA00FA00FA00FA00FA007D007D00FA68
:1012B00000FA00FA00FA00FA007D007D007D007D52
:1012C000007D007D007D007D007D007D00FA00FA3C
:1012D000007D007D00FA00FA00FA00FA00FA00FA38
:1012E00000FA007D007D007D007D00FA00FA00FA22
:1012F000007D007D007D007D00FA00FA00FA00FA12
:1013000000F401FA00F401F401FA00FA00F401FA21
:1013100000FA00F401FA00FA00F4013E00FA00EECF
:10132000027D007D007D0077017D007D007D0077DE
:10133000017D007D007D007701AF027D007D007D95
:101340000077017D007D007D0077017D007D007DBF
:10135000007701EE027D007D007D0038017D007D7B
:10136000007D0077017D007D007D007701EE027D2C
:10137000007D007D0077017D007D007D0096017D70
:10138000007D007D0077017D007D007D0077017D7F
:10139000007D007D0077017D007D007D007701E804
:1013A0000341000000310041000000340000003A19
:1013B0000041004100410041004100410041004125
:1013C0000041004100410041004100410041004115
:1013D0000041004100410041004100410041003412
:1013E0000000004100410041004100410041004136
:1013F00000410041004100410041004100410041E5
:101400000041003100310031003100310031003144
:101410000031003100310031003100310031003144
:10142000003100340034003400340034003400341F
:101430000034003A003A003A003A003A003A003AE2
:10144000003A004E004E004E004E004E004E004E40
:10145000004E003100310031004E00490041004192
:101460000041004100410041004100410041004174
:101470000041004100410041004100410031003184
:1014800000310031003100310031003100310031D4
:1014900000310031003100310031003100340034BE
:1014A000003400340034003400340034003A003A90
:1014B000003A003A00000000003A003400310034E5
:1014C0000034003400340034003400340034003A76
:1014D000003A003A003A003A003A003A003A004E28
:1014E000004E004E004900490025004100410041E6
:1014F000003A003A003A003400340034003400343A
:10150000003400340034003A003A003A003A003A1D
:10151000003A003A003A0031003100310031002C2D
:10152000002C003A00490031003A0000004E0057FC
:1015300000620057004E00310000000000F700007C
:1015400000DC0000007003000070030000000000D9
:101550000000009300000000000000930000000065
:1015600000930000000000000093007500000000E0
:10157000009300750000000000750000000000935B
:10158000000000000075000000000000008B00005B
:1015900000000075000000000093000000000093B0
:1015A000000000000000000000000068007B000058
:1015B0000093008B0000000000000000000000000D
:1015C000000000000000000000000000000000001B
:1015D000000000000000000000000000000000000B
:1015E00000000000000000000000000000000000FB
:1015F00000000000000000000000000000000000EB
:10160000000000000000006E00000000000000006C
:1016100000000000000000000000000000000000CA
:1016200000000000000000000000000000000000BA
:1016300000000000000000000000000000000000AA
:10164000000000000000000000000000000000009A
:10165000000000000000000000000000000000008A
:10166000000000000000000000000000000000007A
:10167000000000000000000000000000000000006A
:101680000000006E00A500DC0000005200A500D0A4
:101690000000006E00A500DC00000000006E00A548
:1016A00000DC0000005200A500D00000006E00A584
:1016B00000DC00000000006E00A500DC000000520D
:1016C00000A500D00000006E00A500DC00000000B6
:1016D000006E00A500DC0000005200A500D0000054
:1016E000006E00A500DC0000008300C400060100BD
:1016F000006200C400F70000006E00A500DC0000DE
:1017000000000000000000240027002A0000000064
:10171000002300260029000000000800020100004C
:10172000030407000000000000000001020408108C
:10173000204080010204081020010204081020004B
:10174000000000250028002B000404040404040405
:1017500004020202020202030303030303003F2008
:1017600011241FBECFEFD8E0DEBFCDBF11E0A0E057
:10177000B1E0EAE3F6E502C005900D92AC3FB10797
:10178000D9F723E0ACEFB1E001C01D92A539B20753
:10179000E1F71BE0C0EBDBE004C02197FE010E94F3
:1017A000052BCF3AD107C9F70E940C210C941B2BB3
:1017B0000C940000833081F028F4813099F082305D
:1017C000A9F008958730A9F08830C9F08430B1F4C9
:1017D000809180008F7D03C0809180008F778093FF
:1017E0008000089584B58F7784BD089584B58F7D7A
:1017F000FBCF8091B0008F778093B00008958091E7
:10180000B0008F7DF9CFCF93DF93282F30E0F9011F
:10181000E95EF84E8491F901E55DF84ED491F90145
:10182000E75BF84EC491CC23A1F081110E94DA0B42
:10183000EC2FF0E0EE0FFF1FE35FF84EA591B4919F
:10184000EC91ED2381E090E009F480E0DF91CF910D
:10185000089580E090E0FACF1F93CF93DF93282F75
:1018600030E0F901E95EF84E8491F901E55DF84E4A
:10187000D491F901E75BF84EC491CC23A9F0162F5F
:1018800081110E94DA0BEC2FF0E0EE0FFF1FE15CFC
:10189000F84EA591B4918FB7F894EC91111108C04E
:1018A000D095DE23DC938FBFDF91CF911F910895F8
:1018B000DE2BF8CFCF93DF9390E0FC01E55DF84E8F
:1018C0002491875B984EFC0184918823D1F090E0AD
:1018D000880F991FFC01ED5FF84EA591B491FC01B2
:1018E000E15CF84EC591D49161110EC09FB7F89498
:1018F0008C91E22FE0958E238C932881E223E8835C
:101900009FBFDF91CF9108958FB7F894EC91E22BB0
:10191000EC938FBFF6CF3FB7F8948091B0029091CF
:10192000B102A091B202B091B30226B5A89B05C046
:101930002F3F19F00196A11DB11D3FBFBA2FA92F4E
:10194000982F8827BC01CD01620F711D811D911D4B
:1019500042E0660F771F881F991F4A95D1F70895B7
:101960008F929F92AF92BF92CF92DF92EF92FF92AF
:101970004B015C010E948B0C6B017C010E948B0C63
:101980006C197D098E099F09683E73408105910598
:10199000A8F321E0821A9108A108B10888EEC80EC8
:1019A00083E0D81EE11CF11C81149104A104B10450
:1019B00029F7FF90EF90DF90CF90BF90AF909F906E
:1019C0008F9008952FB7F8946091AC027091AD029A
:1019D0008091AE029091AF022FBF0895AF92BF9257
:1019E000CF92DF92EF92FF920F931F93CF93DF93EB
:1019F0006C017B018B01040F151FEB015E01AE181A
:101A0000BF08C017D10759F06991D601ED91FC913B
:101A10000190F081E02DC6010995892B79F7C50168
:101A2000DF91CF911F910F91FF90EF90DF90CF90BA
:101A3000BF90AF900895FC01538D448D252F30E069
:101A4000842F90E0821B930B541710F0CF960895CB
:101A500001970895FC01918D828D981761F0A28DF8
:101A6000AE0FBF2FB11D5D968C91928D9F5F9F73BE
:101A7000928F90E008958FEF9FEF0895FC01918D74
:101A8000828D981731F0828DE80FF11D858D90E0E1
:101A900008958FEF9FEF0895FC01918D228D892F7E
:101AA00090E0805C9F4F821B91098F739927089566
:101AB00084EB92E00E944C0D21E0892B09F420E098
:101AC000822F089580E090E0892B29F00E94580D24
:101AD00081110C9400000895FC01A48DA80FB92F6A
:101AE000B11DA35ABF4F2C91848D90E001968F7346
:101AF0009927848FA689B7892C93A089B1898C9165
:101B0000837080648C93938D848D981306C00288B3
:101B1000F389E02D80818F7D80830895EF92FF927D
:101B20000F931F93CF93DF93EC0181E0888F9B8D00
:101B30008C8D98131AC0E889F989808185FF15C0BA
:101B40009FB7F894EE89FF896083E889F9898081DD
:101B50008370806480839FBF81E090E0DF91CF91AC
:101B60001F910F91FF90EF900895F62E0B8D10E0CE
:101B70000F5F1F4F0F731127E02E8C8D8E110CC03D
:101B80000FB607FCFACFE889F989808185FFF5CF88
:101B9000CE010E946C0DF1CFEB8DEC0FFD2FF11DEE
:101BA000E35AFF4FF0829FB7F8940B8FEA89FB89C5
:101BB00080818062CFCFCF93DF93EC01888D882323
:101BC000B9F0AA89BB89E889F9898C9185FD03C0A0
:101BD000808186FD0DC00FB607FCF7CF8C9185FF85
:101BE000F2CF808185FFEDCFCE010E946C0DE9CF51
:101BF000DF91CF91089520912302260F3327331FC1
:101C000021323105ECF420914702FC0190E080E0A4
:101C1000243069F082E00895A09123022191AC0163
:101C20004D5F5D4FA40FB52FB11D2C930196861704
:101C300098F380912302680F6093230280E0089557
:101C400081E0089508958FEF9FEF08958FEF9FEF44
:101C500008958091FC0190E09195819591090895F6
:101C6000CF93DF93CB01EA01642F0E94FB0DCE01DD
:101C7000DF91CF910895CF93DF931F92CDB7DEB759
:101C8000698361E0CE0101960E94FB0D81E090E046
:101C90000F90DF91CF910895FC01A5A1B6A18C9181
:101CA00092A589238C93A5A1B6A18C9191A5892B8E
:101CB0008C9308950F931F93CF93DF93EC018B01C7
:101CC0008DA981110DC01EBD0DB407FEFDCF0EBD47
:101CD0000DB407FEFDCFDF91CF911F910F910895B5
:101CE0008130E9F480E1E9A1FAA1908117FF14C0E5
:101CF0002DA1922B9083EBA1FCA190812FA1922B7F
:101D00009083EBA1FCA1908128A592239083000FE2
:101D1000111F815041F7DFCF2EA19223EBCFEF8D22
:101D2000F8A11083CE010E944C0EEF8DF8A1008324
:101D3000CE01DF91CF911F910F910C944C0EFC01BD
:101D400085A9811105C06EBD0DB407FEFDCF0895B4
:101D50008130E1F488E0A1A1B2A19C9167FF13C09A
:101D600025A1922B9C93A3A1B4A19C9127A1922B76
:101D70009C93660FA3A1B4A19C9120A592239C9350
:101D8000815049F7089526A19223ECCFA78DB0A1E9
:101D90006C93CF010C944C0ECF93DF93EC01ED8D3F
:101DA000FE8D80819CA989238083CE010E949F0E95
:101DB000ED8DFE8D80819BA9892B8083DF91CF9152
:101DC0000895AF92BF92CF92DF92EF92FF920F935E
:101DD0001F93CF93DF93EC015B016A01215031091E
:101DE0007901E60EF71E01501109040F151F8091AD
:101DF0000601909107018617970739F48091040135
:101E0000909105018E159F05A1F06AE2CE010E9416
:101E1000CC0EB501CE010E945A0EB701CE010E9430
:101E20005A0EB0920701A0920601F0920501E092CD
:101E3000040180910201909103018C159D0539F4F4
:101E4000809100019091010180179107A1F06BE250
:101E5000CE010E94CC0EB601CE010E945A0EB801EE
:101E6000CE010E945A0ED0920301C092020110933B
:101E70000101009300016CE2CE01DF91CF911F912F
:101E80000F91FF90EF90DF90CF90BF90AF900C94A8
:101E9000CC0EFC0185A9811104C091A182A19CBD39
:101EA0008DBD08951F93CF93DF93EC01162FE8812A
:101EB000F9810284F385E02D0995112371F06DAD50
:101EC000CE010E94CC0EE881F9810688F789E02DC9
:101ED000CE01DF91CF911F9109946EADF1CFAF92FA
:101EE000BF92CF92DF92EF92FF920F931F93CF9307
:101EF000DF93EC0177FD38C08885998568177907ED
:101F00009CF557FD31C08A859B854817590764F5B4
:101F100069017A015B01E881F9810284F385E02D92
:101F2000CE010995E881F98102A4F3A5E02D01E035
:101F300010E021E030E0A701B501CE010995B6011E
:101F4000CE010E945A0EE881F9810688F789E02DBA
:101F5000CE01DF91CF911F910F91FF90EF90DF9015
:101F6000CF90BF90AF900994DF91CF911F910F91C7
:101F7000FF90EF90DF90CF90BF90AF9008958F9239
:101F80009F92AF92BF92CF92DF92EF92FF920F9308
:101F90001F93CF93DF93EC0149015701E881F98149
:101FA00002A4F3A5E02D09959401D8010E94CB2A43
:101FB0006B017C01C114D104E104F10409F490C067
:101FC0008DA9811115C081E0C81AD108E108F10876
:101FD0008FEFC816D806E806F80609F481C0BEBC23
:101FE0000DB407FEFDCFAEBC0DB407FEFDCFEBCFA9
:101FF000813009F045C081E0C81AD108E108F10834
:102000008FEFC816D806E806F80609F469C09B2DBC
:1020100088E0E9A1FAA1208197FF2CC03DA1232BE4
:102020002083EBA1FCA120813FA1232B2083EBA1E6
:10203000FCA1208138A523232083990F815049F7E3
:102040009A2D88E0E9A1FAA1208197FF16C03DA151
:10205000232B2083EBA1FCA120813FA1232B2083F4
:10206000EBA1FCA1208138A523232083990F815067
:1020700049F7C1CF3EA12323D3CF3EA12323E9CFEC
:10208000BA1016C0CC0CDD1CEE1CFF1CEF8DF8A1A5
:10209000B08281E0C81AD108E108F1088FEFC816B4
:1020A000D806E806F806E1F0CE010E944C0EF1CF0A
:1020B00081E0C81AD108E108F1088FEFC816D806E8
:1020C000E806F80669F0EF8DF8A1B082CE010E9413
:1020D0004C0EEF8DF8A1A082CE010E944C0EE8CFED
:1020E000DF91CF911F910F91FF90EF90DF90CF90F4
:1020F000BF90AF909F908F9008958F929F92AF92D4
:10210000BF92CF92DF92EF92FF920F931F93CF93E4
:10211000DF934C01EB016A01590137FF07C0C90188
:102120000196C80FD91FB194A194B108F401A085FC
:10213000B185CA17DB070CF058C017FF07C0C801EC
:102140000196C80ED91E119501951109F4018285D9
:102150009385C816D9060CF048C0FE01EA0DFB1D98
:10216000AF014150510957FD40C0B601600F711FCA
:102170009B012150310937FD38C0D7FF03C05F01F3
:10218000D0E0C0E0D7FE03C08B01D12CC12C4A1790
:102190005B071CF05D01AC1ABD0A281739071CF05B
:1021A0008C010C191D09D401ED91FC910284F38579
:1021B000E02DC40109959501A601BE01C4010E944C
:1021C000BF0FD401ED91FC910688F789E02DC40181
:1021D000DF91CF911F910F91FF90EF90DF90CF9003
:1021E000BF90AF909F908F900994DF91CF911F91F6
:1021F0000F91FF90EF90DF90CF90BF90AF909F90A6
:102200008F900895EF92FF920F931F932115310540
:1022100029F00115110511F00E947D101F910F91F9
:10222000FF90EF9008958F929F92AF92BF92CF92BE
:10223000DF92EF92FF920F931F93CF93DF935C0196
:102240004B016A01E90177FD52C0DC0118968D91BE
:102250009C91681779070CF04AC0209709F447C091
:1022600037FF07C0C9010196C80ED91ED195C19587
:10227000D109F50182859385C816D906C4F5A60152
:102280004C0F5D1F9A012150310937FD30C0D7FE38
:1022900003C0EA01D12CC12C281739071CF0EC012E
:1022A000CC19DD09D501ED91FC910284F385E02D77
:1022B000C501099578018E0121E030E0A601B40145
:1022C000C5010E94BF0FD501ED91FC910688F789E9
:1022D000E02DC501DF91CF911F910F91FF90EF90FD
:1022E000DF90CF90BF90AF909F908F900994DF9137
:1022F000CF911F910F91FF90EF90DF90CF90BF9003
:10230000AF909F908F9008958F929F92AF92BF92BF
:10231000CF92DF92EF92FF920F931F93CF93DF93B1
:102320005C016B014A01E90157FD52C0DC011A96BC
:102330008D919C91481759070CF04AC0209709F4D9
:1023400047C037FF07C0C9010196C80ED91ED195F5
:10235000C195D109F50180859185C816D906C4F5C6
:10236000A6014C0F5D1F9A012150310937FD30C085
:10237000D7FE03C0EA01D12CC12C281739071CF065
:10238000EC01CC19DD09D501ED91FC910284F385B6
:10239000E02DC5010995780101E010E09E01A4013E
:1023A000B601C5010E94BF0FD501ED91FC910688D1
:1023B000F789E02DC501DF91CF911F910F91FF901B
:1023C000EF90DF90CF90BF90AF909F908F90099447
:1023D000DF91CF911F910F91FF90EF90DF90CF9001
:1023E000BF90AF909F908F900895EF92FF920F93C0
:1023F0001F93CF93DF9377FD32C0DC011896ED91E8
:10240000FC916E177F075CF52115310541F137FF0F
:1024100007C0F90131964E0F5F1F319521953109A3
:10242000DC011A96ED91FC914E175F07C4F4EA01A6
:10243000C20FD31FDE011197B7FD11C057FF03C0B4
:102440009E0150E040E0AE17BF071CF09F01241B27
:10245000350B7801890121E030E00E94BF0FDF9148
:10246000CF911F910F91FF90EF900895EF92FF92FF
:102470000F931F93CF93DF9357FD31C0DC011A9662
:10248000ED91FC914E175F0754F52115310539F197
:1024900037FF07C0F90131966E0F7F1F31952195E7
:1024A0003109DC011896ED91FC916E177F07BCF4A1
:1024B000EB01C20FD31FDE011197B7FD10C077FFEC
:1024C00003C09E0170E060E0AE17BF071CF09F01E3
:1024D000261B370B780101E010E00E94BF0FDF914F
:1024E000CF911F910F91FF90EF9008958F929F923F
:1024F000AF92BF92CF92DF92EF92FF920F931F9312
:10250000CF93DF9347012115310509F44BC0011525
:10251000110509F447C037FF07C0F90131966E0F66
:102520007F1F319521953109DC011896AD90BC9043
:102530006A157B05BCF517FF07C0F80131964E0FF1
:102540005F1F119501951109DC011A96ED91FC911F
:102550004E175F073CF56B01C20ED31EE6012197B3
:10256000D7FD20C07A01E00EF11ED7011197B7FD0B
:1025700019C077FF03C0960170E060E057FF03C009
:10258000870150E040E0CA15DB051CF09501261BD1
:10259000370BAE17BF071CF08F01041B150B74011E
:1025A0000E94BF0FDF91CF911F910F91FF90EF908D
:1025B000DF90CF90BF90AF909F908F900895EF9253
:1025C000FF920F931F93CF93DF93EC0177FD22C00F
:1025D0008885998568177907ECF457FD1BC08A85B3
:1025E0009B8548175907B4F47901E881F98102A461
:1025F000F3A5E02D01E010E021E030E0CE010995E7
:10260000B701CE01DF91CF911F910F91FF90EF9015
:102610000C945A0EDF91CF911F910F91FF90EF9084
:102620000895CF93DF93EC010E94490F8FA987FD96
:1026300006C0EB8DFC8D80819AA989238083DF9170
:10264000CF9108950895AF92BF92CF92DF92EF920B
:10265000FF920F931F93CF93DF93EC01E62E8A0135
:10266000A22E0E94490F8FA987FD06C0EB8DFC8D1D
:1026700080819AA989238083ED8DFE8D80819CA91C
:10268000892380836E2DCE010E949F0EED8DFE8DDD
:1026900080819BA9892B8083D12CC12CB12CCA1499
:1026A000DB04E4F48DA97801823079F488A98823C9
:1026B00061F0F801619171917F01CE010E945A0E83
:1026C000FFEFCF1ADF0A8701EACFFFEFEF1AFF0A09
:1026D000F8016491CE010E949F0EF2CF8FA987FD71
:1026E00006C0EB8DFC8D808199A9892B8083DF91B9
:1026F000CF911F910F91FF90EF90DF90CF90BF90FF
:10270000AF900895611106C060E220E050E040E023
:102710000C94231361E2F9CF0F931F93CF93DF93B0
:102720001F92CDB7DEB78C016370DC0156966C93B7
:102730005697623009F468C0633009F46AC06130AA
:1027400009F456C088E4898380EF90E019969C9341
:102750008E93189780E491E01B969C938E931A9722
:10276000C8010E94490FD801D7968C91D79787FD51
:1027700009C05B96ED91FC915C978081D2969C910B
:1027800089238083D8015D96ED91FC915E978081CD
:10279000D4969C918923808366E3C8010E949F0E92
:1027A000D8015D96ED91FC915E978081D3969C91C6
:1027B000D397892B8083D5968C91823061F1698182
:1027C000C8010E949F0ED801D7968C91D79787FD9C
:1027D00009C05B96ED91FC915C978081D1969C91AC
:1027E000892B80830F90DF91CF911F910F910895D6
:1027F00088E2898380E491E0F8019187808780EF07
:1028000090E093878287ACCF88E8898380EF90E05F
:102810009DCF88EEEECFF80180A9882381F26981EF
:102820007A81C8010E945A0ECECFFC0187A987FD8C
:1028300006C0A38DB48D9C9181A9892B8C9308959A
:102840002F923F924F925F926F927F928F929F92C0
:10285000AF92BF92CF92DF92EF92FF920F931F93AE
:10286000CF93DF93CDB7DEB728970FB6F894DEBFCE
:102870000FBECDBF3C017E836D8358874F836901B6
:1028800082E593E00E9411132F813885220F331FB8
:102890002F5F3F4F4D815E818F819885481B590B7B
:1028A0008601B30182E593E00E94F51181E090E09A
:1028B0002C012F813885421A530AC90191958195BF
:1028C00091099C01220F331F3C832B832F80388476
:1028D00081E090E09A838983F12CE12C57FC0DC0B4
:1028E0008F819885019798878F832B813C812E5FFC
:1028F0003F4F3C832B83420E531E3FEFE31AF30AF4
:1029000089819A8102969A838983480E591E2F8164
:1029100038852E153F050CF469C04901880C991CB7
:102920003FEF831A930A86019401AD80BE808F81A8
:102930009885A81AB90AA501B3016E0D7F1D82E51D
:1029400093E00E94F5119401A501B3016E197F096E
:1029500082E593E00E94F5112F8138852215330519
:1029600019F1AA24A394B12CAE18BF088D819E81C1
:10297000A80EB91EB301620D731D860189809A806D
:1029800092E0891A91089401A50182E593E00E94E2
:10299000F511B301621973099401A50182E593E071
:1029A0000E94F5112F8038842F813885E216F306B6
:1029B0000CF494CF82E593E028960FB6F894DEBF2E
:1029C0000FBECDBFDF91CF911F910F91FF90EF9080
:1029D000DF90CF90BF90AF909F908F907F906F903F
:1029E0005F904F903F902F900C9415142F81388555
:1029F0002215330509F0B5CFDDCF2F923F924F92CC
:102A00005F926F927F928F929F92AF92BF92CF927E
:102A1000DF92EF92FF920F931F93CF93DF93CDB787
:102A2000DEB7A2970FB6F894DEBF0FBECDBF9C8372
:102A30008B8378876F836A013A8329831E830D8392
:102A4000E216F3065CF09E2D8F2D790199838A831F
:102A50009D818E815E834D83C92ED82E82E593E0C1
:102A60000E94111329813A81E216F30619F4FC86BB
:102A7000EB8605C09701215031093C872B8749819E
:102A80005A818F819885481B590B5C8B4B8B1C019D
:102A9000412C512C3201812C912C5401C601AB8167
:102AA000BC818A1B9B0B9C01990F440B550B2F87F4
:102AB000388B498B5A8BC701821993099C01990F56
:102AC000440B550B2D8B3E8B4F8B588F8B899C89DC
:102AD000092E000CAA0BBB0B898F9A8FAB8FBC8F72
:102AE0008D819E81AB81BC818A1B9B0B9C01990FC0
:102AF000440B550B2D8F3E8F4F8F58A34B855C8514
:102B0000421553050CF445C0C501B4012D893E8919
:102B10004F89588D0E94AC2A8B819C81820F931F14
:102B20009AA389A3C301B201298D3A8D4B8D5C8D87
:102B30000E94AC2A6B817C81620F731F2D8D3E8DAC
:102B40004F8D58A1820E931EA41EB51E8F859889A5
:102B5000A989BA89480E591E6A1E7B1EA9A1BAA16D
:102B60006A177B072CF0962F872FBD0199A38AA3A4
:102B700029A13AA1261B370B2F5F3F4F0FEF1FEF05
:102B8000A10182E593E00E943612BFEF2B1A3B0AA7
:102B9000B5CF46010D2C000CAA08BB082B813C8147
:102BA000C901330FAA0BBB0BA5019401281B390BDC
:102BB0004A0B5B0B2B873C874D875E87D6014D8187
:102BC0005E81A41BB50B9D010B2E000C440B550B15
:102BD0002F87388B498B5A8B91012E193F090E9400
:102BE000CB2A2B013C01D1014F815885A41BB50B89
:102BF0002B853C854D855E850E94E92A4B015C0151
:102C000089819A818E199F099C01990F440B550B5C
:102C10002F83388749875A874B895C896A01550F0A
:102C2000EE08FF0889819A81821593050CF443C050
:102C3000C301B2012F81388549855A850E94AC2A8B
:102C4000AD81BE81A20FB31FBC8BAB8BC501B4019C
:102C5000A70196010E94AC2A6B817C81620F731FD1
:102C60002F85388949895A89420E531E641E751E64
:102C70008B859C85AD85BE85880E991EAA1EBB1EC0
:102C8000AB89BC896A177B072CF0962F872FBD0173
:102C90009B8B8C8B2B893C89261B370B2F5F3F4FDF
:102CA0000FEF1FEFA10182E593E00E943612BFEF04
:102CB0002B1A3B0AB7CF82E593E0A2960FB6F894A1
:102CC000DEBF0FBECDBFDF91CF911F910F91FF905F
:102CD000EF90DF90CF90BF90AF909F908F907F90BC
:102CE0006F905F904F903F902F900C941514089523
:102CF000FC016370668B8481958126813781613008
:102D000039F0633029F091878087338722870895CF
:102D1000318720879387828708952F923F924F9221
:102D20005F926F927F928F929F92AF92BF92CF925B
:102D3000DF92EF92FF920F931F93CF93DF93CDB764
:102D4000DEB76A970FB6F894DEBF0FBECDBF9A8F7D
:102D5000898F7A8369834A01D22E18870F833701BE
:102D6000BC2CDC0159962D913C915A9721153105C7
:102D700009F015C118968D919C91199768177907DC
:102D80000CF0D7C11A968D919C91481759070CF0F9
:102D9000D0C14C2C512CB6E0CB9E600D711D11247E
:102DA0007C876B87161617060CF0C3C1EA2DF0E07E
:102DB000FA87E98793E0EE0FFF1F9A95E1F7F88B0A
:102DC000EF87CF01840F951F181619060CF0B1C1BB
:102DD000A98DBA8D58968C91811104C0BFEABD159A
:102DE00008F4D394A98DBA8DED91FC9111970284CA
:102DF000F385E02DCD010995B5E0DB9EC0011124DE
:102E0000E981FA81FC83EB83312C212C9C01285928
:102E10003F4F388F2F8B4A2D50E05E8B4D8BEF89C3
:102E2000F88DE20DF31D44919E828D82D12CC12C30
:102E300069817A81620D731D7A8B698B842F90E092
:102E40009C8B8B8BE98DFA8DA081B18140FF82C074
:102E5000F1E0BF126FC0AF126DC01C96ED91FC91F6
:102E60002F813885A4014C0D5D1D69897A89898D72
:102E70009A8D0995EB89FC89F595E7954E2F5FEFC3
:102E8000C51AD50A6D817E818D899E89680F791F4B
:102E90007E836D8398E0C916D10481F6AFEF2A1ABC
:102EA0003A0AEB81FC81E40DF51DFC83EB83F5E030
:102EB0002F16310409F0B3CF2F8138852615370539
:102EC000B9F0A98DBA8DED91FC91B1E0BB1257C05C
:102ED000AB1255C069817A816B5F7F4F0088F189A1
:102EE000E02D830128E030E0A401898D9A8D0995B9
:102EF000A98DBA8DED91FC9111970688F789E02D87
:102F0000CD016A960FB6F894DEBF0FBECDBFDF913C
:102F1000CF911F910F91FF90EF90DF90CF90BF90D6
:102F2000AF909F908F907F906F905F904F903F9069
:102F30002F9009941E96ED91FC91EF80F8840985FD
:102F40001A8592014D815E816B817C81898D9A8D7C
:102F5000099590CF2F8138852615370509F48ACF3A
:102F600031E0B31207C0A31205C01C96ED91FC918D
:102F7000930178CF1E96ED91FC917301E0CF6B85A4
:102F80007C85641975090684F785E02D73010F852A
:102F900018899201A401898D9A8D0995A9CFF9010B
:102FA00034969491329745915491D91AB7E0DB9EAB
:102FB000400D511D1124F901259134913C8B2B8B2F
:102FC000FA0125903490FA0132967490319634913A
:102FD000398B329664903196449041E04C1518F04C
:102FE0004A1508F07FC0662D062C000C770B7C83F9
:102FF0006B83842D042C000C990B9E838D83A98DEB
:10300000BA8DED91FC9111970284F385E02DCD01ED
:103010000995512CD12CC12CEA2DF0E0FA87E987D3
:103020002B2D30E03C872B87A401440D511D47FC1C
:103030005A95588F4F8B69817A81660D711D67FC97
:103040007A957E876D877989C71608F051CF2C2D28
:1030500030E04D815E81420F531FA985BA854A9F9A
:10306000C0014B9F900D5A9F900D1124FC01E80D5B
:10307000F91DF88BEF87852D612C4F89588D420FF4
:10308000531F5E8B4D8B671408F050C0442443944B
:10309000480E877041F4C1010196EB89FC89E20D6D
:1030A000F31DD4901C01D7FE19C0A98DBA8DED91E6
:1030B000FC91662D70E0B1E0BB1219C0AB1217C0D5
:1030C0002D853E85620F731F0484F585E02D2F81C9
:1030D00038854D895E89898D9A8D0995DD0C6394BB
:1030E000842DD1CF1E821D821C821B8288CF4B81F2
:1030F0005C81640F751FAB85BC856A9FC0016B9FA7
:10310000900D7A9F900D112469817A81680F791F43
:103110000684F785E02DEF80F88409851A859D01E6
:103120004F855889898D9A8D0995D8CF570CC394AE
:103130008ACF6A960FB6F894DEBF0FBECDBFDF917F
:10314000CF911F910F91FF90EF90DF90CF90BF90A4
:10315000AF909F908F907F906F905F904F903F9037
:103160002F9008958F929F92AF92CF92EF92FF92FD
:103170000F931F93CF93DF93EC01262F898D9A8DA8
:10318000009709F051C06A30D1F41D861C868D89E4
:1031900048E0849F900111248E859F85820F931FA4
:1031A0009F878E8781E090E0DF91CF911F910F91F3
:1031B000FF90EF90CF90AF909F908F9008956D30DB
:1031C00089F3CC88AD888F898823C1F08C859D8553
:1031D00036E0C39E800D911D1124488559854817FE
:1031E000590764F44E855F851D861C8638E0A39ED2
:1031F000C0011124840F951F9F878E87EA88FB8862
:10320000088919894E855F856C857D85CE010E9470
:103210008D162C898C859D8546E0249F800D911DFF
:1032200011249D878C87BECF6A3069F41D861C8669
:10323000FC013896E4912D898E859F85E29F800D53
:10324000911D1124ADCF6D3009F4ACCFFC01349643
:103250003491631708F4A6CF3296E491E61708F488
:10326000A1CFFC01329685909490462F431B342FBA
:1032700047E0349F800C911C1124F4013296349164
:103280003196E4913323A9F1EE2399F1CC88F4012E
:103290003596E491AD884F89442301F10E2E000C40
:1032A000FF0BE30FF11DCE9EA001CF9E500D112408
:1032B0006C857D85460F571F68857985641775076E
:1032C0006CF44E855F851D861C86FC013896E49162
:1032D000AE9E400D511D11245F874E87EA88FB8802
:1032E000088919894E855F856C857D85CE010E9490
:1032F0008D16F4013496E4912C898C859D85E29F8E
:10330000800D911D11248DCF6F927F928F929F928D
:10331000AF92BF92CF92DF92EF92FF920F931F93E3
:10332000CF93DF93EC016B015A0139014801E88129
:10333000F9810284F385E02D0995E881F9810288FD
:10334000F389E02D87019301A501B601CE0109950E
:10335000A501480D591D41505109E881F9810288A4
:10336000F389E02D9301B601CE010995E881F98139
:103370000088F189E02D9401A501B601CE010995DF
:10338000C60CD71CB60161507109E881F98100882B
:10339000F189E02D9401A501CE010995E881F9811B
:1033A0000688F789E02DCE01DF91CF911F910F9113
:1033B000FF90EF90DF90CF90BF90AF909F908F9055
:1033C0007F906F9009946F927F928F929F92AF92AD
:1033D000BF92CF92DF92EF92FF920F931F93CF9302
:1033E000DF935C01EB016A01490138018701DC01CF
:1033F000ED91FC916217730719F5641675062CF0B0
:10340000962D872D3A01C92ED82E960126193709F7
:103410002F5F3F4F048CF58DE02DA301BE01C50148
:103420000995DF91CF911F910F91FF90EF90DF9061
:10343000CF90BF90AF909F908F907F906F900895A6
:103440004615570591F42617370724F0892D4B01AF
:10345000C22FD82F9E01281939092F5F3F4F068CA4
:10346000F78DE02DA601B401DACF0284F385E02DBB
:103470000995D501ED91FC910488F589E02D830132
:103480009401A601BE01C5010995D501ED91FC91FC
:103490000688F789E02DC501DF91CF911F910F912B
:1034A000FF90EF90DF90CF90BF90AF909F908F9064
:1034B0007F906F900994EF92FF920F931F93DC011E
:1034C0001A960D911C911B9718962D913C91199766
:1034D000ED91FC9100A0F1A1E02D7B0150E040E0D6
:1034E00070E060E009951F910F91FF90EF900895B3
:1034F0004F925F926F927F928F929F92AF92BF9204
:10350000CF92DF92EF92FF920F931F93CF93DF93AF
:103510006C012B015A0139014801DC01ED91FC914C
:103520000284F385E02D0995E201640C751CD60137
:10353000ED91FC91C615D7055CF40088F189E02D6A
:1035400087019401A501BE01C60109952196EFCF1F
:103550000688F789E02DC601DF91CF911F910F9169
:10356000FF90EF90DF90CF90BF90AF909F908F90A3
:103570007F906F905F904F9009948F929F92AF923F
:10358000BF92CF92DF92EF92FF920F931F93CF9350
:10359000DF93EC015B014A016901E881F981028452
:1035A000F385E02D099595012C0D3D1D2150310924
:1035B000E881F9810488F589E02D78018401A4016E
:1035C000B501CE010995E881F9810688F789E02DDA
:1035D000CE01DF91CF911F910F91FF90EF90DF907F
:1035E000CF90BF90AF909F908F9009948F929F92B1
:1035F000AF92BF92CF92DF92EF92FF920F931F9301
:10360000CF93DF93EC015B014A0169017801E88106
:10361000F9810284F385E02D0995C80CD91C860137
:1036200001501109E881F9810488F589E02D95019F
:10363000A401B501CE010995E881F9810688F789D1
:10364000E02DCE01DF91CF911F910F91FF90EF9070
:10365000DF90CF90BF90AF909F908F900994EF92A2
:10366000FF920F931F93DC01ED91FC9100A0F1A15B
:10367000E02D09951F910F91FF90EF9008950F9302
:103680001F93DC01ED91FC91068CF78DE02D0995DF
:103690001F910F9108950F931F93DC01ED91FC9101
:1036A000048CF58DE02D09951F910F910895DC0193
:1036B000ED91FC910084F185E02D09942F923F92C9
:1036C0004F925F926F927F928F929F92AF92BF9232
:1036D000CF92DF92EF92FF920F931F93CF93DF93DE
:1036E00000D000D000D0CDB7DEB73C016A013E83E8
:1036F0002D83FC82EB825801A41AB50AB7FE03C0E1
:10370000B194A194B1088D809E80861A970A97FE85
:1037100003C09194819491088A149B045CF0902FCB
:10372000812F0D811E819D838E839C2D8D2D6B019C
:10373000692F782F0C151D055CF09D818E817E838D
:103740006D83692F782F902F812F8601C92ED82E57
:103750001601201A310A2B012D813E81421A530A8B
:1037600057FE03C0519441945108710137FE03C0C4
:103770003FEFE31AF30AF594E7948D819E81861753
:1037800097075CF5A1E0B0E0BA83A983C016D10623
:103790004CF1D301ED91FC910484F585E02D2B8152
:1037A0003C81A8016D817E818A149B041CF04D81AF
:1037B0005E81B801C3010995E418F508F7FE0AC057
:1037C0002D813E8189819A81280F391F3E832D8367
:1037D000E20CF31C0F5F1F4FD9CF2FEF3FEF3A835F
:1037E0002983D4CF26960FB6F894DEBF0FBECDBF87
:1037F000DF91CF911F910F91FF90EF90DF90CF90CD
:10380000BF90AF909F908F907F906F905F904F9000
:103810003F902F900895089590E080E00895EF92F2
:10382000FF920F931F93F12CE12C06E110E023E2AD
:1038300030E048E151E06AE570E082E593E00E9403
:103840007D1082E2E82EFF24F39408E710E02CE2DA
:1038500031E044E650E068E171E084E690E00E94E7
:10386000FD141F910F91FF90EF9008951092950213
:10387000109294021092930210928C0210928B027A
:1038800010928602109285021092800210927F029E
:1038900010928D0210928E0210928F02109290025E
:1038A00010928702109288021092890210928A0266
:1038B000109281021092820210928302109284026E
:1038C000809191029091920282309105D9F15CF53C
:1038D0000097A9F18130910579F1615071097093D8
:1038E0001201609311018230910509F440C084F502
:1038F0000097D1F181309105A1F1415051095093C8
:103900000F0140930E018230910509F444C0ACF5DB
:103910000097D9F10197E1F12150310930930C0161
:1039200020930B010895853091057CF08530910539
:10393000A1F66EEC70E0D1CF67E970E0CECF63E422
:1039400070E0CBCF65E070E0C8CF62E070E0C5CF3B
:10395000853091057CF08530910579F645ED50E094
:10396000CCCF47E950E0C9CF46E350E0C6CF45E0B1
:1039700050E0C3CF42E050E0C0CF8530910574F0F5
:10398000059751F62CE830E0C7CF23E530E0C4CFEF
:1039900023E030E0C1CF25E030E0BECF22E030E0D0
:1039A000BBCF0E94162BFB0101900020E9F7319755
:1039B000AF01461B570BDC01ED91FC910280F381B6
:1039C000E02D0994CF92DF92EF92FF920F931F9315
:1039D000CF93DF93EC016A017B01C114D104E104B0
:1039E000F10431F4C12C42E1D42E4AE7E42EF12C4B
:1039F0008FA987FD07C061E00E945A0C61E08FA982
:103A00000E942C0C61E088AD0E945A0C61E088ADE8
:103A10000E942C0C8DA98111A3C040E052E16AE7FD
:103A200070E0C416D506E606F70640F4769567956D
:103A3000579547958F5F8630A1F787E0982F906A5A
:103A4000969599A3809581708AA31BA21CA21DA2A2
:103A50001EA21FB7F89480916D02811127C0E3E583
:103A6000F7E18491E5E3F7E19491E82FF0E0EE0FC0
:103A7000FF1FED5FF84EA591B491EC91E92321F47D
:103A800061E08AE00E942C0C61E08AE00E945A0CFE
:103A90008CB580618CBD8CB580648CBD61E08DE09F
:103AA0000E945A0C61E08BE00E945A0C80916D02DA
:103AB0008F5F80936D021FBF8EA987FD21C061E0DB
:103AC0000E945A0C61E08EA90E942C0C64E670E002
:103AD00080E090E00E94B00C60E08EA90E942C0C67
:103AE00064E670E080E090E00E94B00C61E08EA996
:103AF0000E942C0C68EC70E080E090E00E94B00C1A
:103B00008EA987FF0DC020E050E040E061E0CE01CB
:103B10000E94231366E970E080E090E00E94B00C00
:103B200008E615E0C8010196F8016491662309F4DE
:103B300063C00E5F1F4FFC01F490EF2CE894E7F890
:103B40002E2DA801CE010E9423130E0D111DF7FE8C
:103B5000E9CF66E970E080E090E00E94B00CE2CF2F
:103B600009E417E1F12C8130B9F461E08AA50E94E3
:103B70005A0C60E08AA50E942C0C61E08CA50E9482
:103B80005A0C60E08CA50E942C0C8BA587FD94CF6D
:103B900060E00E945A0C90CFF8018491E82FF0E089
:103BA000EE0FFF1FE15CF84E859194912F8D38A1A7
:103BB0002817390741F461E08F2D0E945A0C60E00C
:103BC0008F2D0E942C0CF3940F5F1F4FF4E1FF1216
:103BD000E3CF61E08EA50E945A0C61E08EA50E94A1
:103BE0002C0C8FA587FD68CF61E00E945A0C61E024
:103BF0008FA50E942C0C60CF80EF90E0998788877A
:103C000080E491E09B878A87DF91CF911F910F918C
:103C1000FF90EF90DF90CF9008951F93CF93DF93A5
:103C200085ED8093BC008091FF0190910002A091EE
:103C30000102B09102020796A11DB11D23E0B695C5
:103C4000A795979587952A95D1F72091BC0024FDDB
:103C500003C01092470252C04091FF0150910002F0
:103C60006091010270910202452B462B472B69F3AC
:103C70000097A105B10541F02AE22A95F1F700C0AD
:103C80000197A109B109E1CF8091FE01C1E0C09384
:103C9000FD01882399F1D091B8001091BA0080916C
:103CA000BC008A7B8093BC0060E082E10E942C0C07
:103CB00060E083E10E942C0C10924702C0934902FD
:103CC0001092480261E082E10E942C0C61E083E1E5
:103CD0000E942C0C8091B9008E7F8093B900809156
:103CE000B9008D7F8093B90088E48093B80085E4A3
:103CF0008093BC001093BA00D093B800DF91CF91AD
:103D00001F9108951F920F920FB60F9211242F93B7
:103D10003F938F939F93AF93BF938091AC02909109
:103D2000AD02A091AE02B091AF023091AB0223E0A0
:103D3000230F2D3758F50196A11DB11D2093AB021D
:103D40008093AC029093AD02A093AE02B093AF0209
:103D50008091B0029091B102A091B202B091B302F1
:103D60000196A11DB11D8093B0029093B102A09362
:103D7000B202B093B302BF91AF919F918F913F91E7
:103D80002F910F900FBE0F901F90189526E8230FCC
:103D90000296A11DB11DD2CF1F920F920FB60F92A6
:103DA00011242F933F934F935F936F937F938F9340
:103DB0009F93AF93BF93EF93FF9384EB92E00E94A6
:103DC0006C0DFF91EF91BF91AF919F918F917F917A
:103DD0006F915F914F913F912F910F900FBE0F9078
:103DE0001F9018951F920F920FB60F9211242F93C8
:103DF0008F939F93EF93FF93E091C402F091C502DC
:103E00008081E091CA02F091CB0282FD1BC09081BB
:103E10008091CD028F5F8F732091CE02821741F087
:103E2000E091CD02F0E0EC54FD4F958F8093CD02F0
:103E3000FF91EF919F918F912F910F900FBE0F9057
:103E40001F9018958081F4CF1F920F920FB60F929A
:103E500011242F933F934F935F936F937F938F938F
:103E60009F93AF93BF93EF93FF938091B900887FA7
:103E7000803609F44AC0F0F5883209F4A5C018F577
:103E8000803109F499C0B8F4882309F4F5C088306A
:103E900009F492C0FF91EF91BF91AF919F918F91E3
:103EA0007F916F915F914F913F912F910F900FBE36
:103EB0000F901F901895883109F486C0803251F711
:103EC0008093460214C0803409F49BC040F48033D0
:103ED000B9F38833F9F68093460285ECAEC080359D
:103EE00009F483C0883509F494C0883499F60E9497
:103EF0000D1ED0CF883909F48AC038F5883729F0EB
:103F000050F4883611F0803729F683E08093470219
:103F10001092450255C0883809F479C0803919F0EB
:103F2000803809F0B7CF80914502803208F06FC029
:103F3000E091450281E08E0F809345028091BB00A5
:103F4000F0E0EB5DFD4F80833BC0803B39F0D0F467
:103F5000803A09F477C0883A09F09CCF84E08093D6
:103F600047021092240210922302F0E0E0E009954B
:103F70008091230281110FC081E08093230210926F
:103F8000030209C0803C09F4A8CF883C09F4A5CFFE
:103F9000883B09F07FCFE091240281E08E0F80936F
:103FA0002402F0E0ED5FFD4F80818093BB00909193
:103FB00024028091230229C080916C028093BB006F
:103FC00085EC8093BC0066CF90916B0280916A0271
:103FD000981758F5E0916B0281E08E0F80936B0289
:103FE000F0E0E65BFD4F8081E9CFE0916B0281E07C
:103FF0008E0F80936B028091BB00F0E0E65BFD4F7B
:10400000808390916B0280916A029817C8F285E8CC
:10401000D8CFE0916B0281E08E0F80936B0280918C
:10402000BB00F0E0E65BFD4F808380914902811187
:104030005ECF81E08093480284EA8093BC001092B6
:10404000470228CF85EC8093BC00109247028091F4
:104050004502803230F4E0914502F0E0EB5DFD4F27
:1040600010826091450270E085E292E0F0E0E0E0CD
:104070000995109245020ECF1092460238CFE4EB1C
:10408000F2E01382128288EE93E0A0E0B0E0848335
:104090009583A683B78380E391E09183808385EC49
:1040A00090E09587848784EC90E09787868780EC02
:1040B00090E0918B808B81EC90E0938B828B82ECF3
:1040C00090E0958B848B86EC90E0978B868B118E9D
:1040D000128E138E148EA2E5B3E013961C921E92DC
:1040E000129720EF30E015963C932E93149780E4BE
:1040F00091E017969C938E93169719963C932E9366
:1041000018971B969C938E931A9756961C925697C7
:104110001D961C921E921C971F961C921E921E9713
:1041200081E055968C93559754968C9354972FEF26
:104130003FEF53963C932E93529751963C932E9378
:10414000509757968C93579758961C9258975A9613
:104150001C921E925997D5961C92D59789E0D696B7
:104160008C93D69788E0D7968C93D7978AE0D89689
:104170008C93D897DA961C921E92D997DC961C9253
:104180001E92DB97DD961C92DD97DE961C92DE97E1
:104190001092910310929203109293031092940341
:1041A00081E593E090969C938E935F97E3E5F7E12A
:1041B000E491F0E0EE0FFF1FE15CF84E85919491E1
:1041C0005E969C938E935D97E5E3F7E18491D39699
:1041D0008C93D397E1E5F7E1E491F0E0EE0FFF1F58
:1041E000E15CF84E259134915C963C932E935B975D
:1041F000E3E3F7E1E491D196EC93D197E095D29681
:10420000EC93D297E82FE095D496EC93D49782E480
:1042100091E08D939C930895CF93DF93CDB7DEB754
:10422000AA970FB6F894DEBF0FBECDBF789484B5C1
:10423000826084BD84B5816084BD85B5826085BDA2
:1042400085B5816085BD80916E00816080936E0030
:104250001092810080918100826080938100809122
:1042600081008160809381008091800081608093D3
:1042700080008091B10084608093B1008091B00093
:1042800081608093B00080917A00846080937A008E
:1042900080917A00826080937A0080917A008160B8
:1042A00080937A0080917A00806880937A001092DF
:1042B000C10061E083E00E945A0C61E085E00E9449
:1042C0005A0C61E086E00E945A0CE091C402F09121
:1042D000C502B2E0DB2ED082E091C002F091C102B3
:1042E0001082E091C202F091C3028FEC80831092A1
:1042F000CC02E091C802F091C90286E08083E0918F
:10430000C602F091C702808180618083E091C6027D
:10431000F091C702808188608083E091C602F091AD
:10432000C702808180688083E091C602F091C70255
:1043300080818F7D80836EE671E084EB92E00E9445
:10434000D31C69E871E084EB92E00E94D31C40E04A
:1043500050E0BA0182E593E00E94E21C70E060E068
:1043600082E593E00E945B1AEE24EA94FE2C0CE2B4
:1043700011E02CED30E04AE050E06AE070E082E5C8
:1043800093E00E94841900EEE02EFF24FA9406EEDA
:1043900010E022ED30E04FE050E06FE070E082E5A9
:1043A00093E00E94841904EE10E020ED30E040E13B
:1043B00050E060E170E082E593E00E9484198FEFA5
:1043C0009FEF9093650380936403909363038093BE
:1043D0006203D0926603D09267032FEF3FEF43E072
:1043E00050E061E370E085E290E00E94201402E377
:1043F00010E010935F0300935E038EE190E09093D2
:104400006103809360036CE871E082E593E00E94B1
:10441000D31C10935F0300935E031093610300931A
:1044200060036AE971E082E593E00E94D31C2FEFFC
:104430003FEF43E050E067E570E085E290E00E94E6
:10444000201410935F0300935E0380E590E0909347
:1044500061038093600367EA71E082E593E00E9464
:10446000D31C2FEF3FEF43E050E065E770E085E2BB
:1044700090E00E94201410935F0300935E038EE689
:1044800090E0909361038093600361EB71E082E5BB
:1044900093E00E94D31C2FEF3FEF43E050E063E92D
:1044A00070E085E290E00E94201410935F03009377
:1044B0005E038CE890E090936103809360036CEB63
:1044C00071E082E593E00E94D31C2FEF3FEF43E0C1
:1044D00050E061EB70E085E290E00E9420141093C0
:1044E0005F0300935E038AEA90E0909361038093F8
:1044F000600369EC71E082E593E00E94D31C2FEF2A
:104500003FEF43E050E06BED70E085E290E00E9409
:10451000201410935F0300935E0388EC90E0909367
:1045200061038093600365ED71E082E593E00E9492
:10453000D31C10935F0300935E038CED90E0909387
:104540006103809360036DED71E082E593E00E946A
:10455000D31C0E940F1C8BE2E82EFF24F39406E488
:1045600010E024E231E048E350E06DE171E086E4E0
:1045700090E00E94FD1408E310E024E231E04AE2FA
:1045800050E06DE171E088E390E00E94FD1494E258
:10459000E92EFF24F3940EEA10E02BE231E040EA2A
:1045A00050E06DE171E080EA90E00E94FD140CEBB8
:1045B00010E02BE231E04EEA50E06DE171E08EEA6E
:1045C00090E00E94FD14DD24D3940E94E20C00913F
:1045D0006E0210916F02209170023091710260178B
:1045E00071078207930708F460C030E020E047E0DD
:1045F00050E06BE071E080910801909109010E9408
:104600002014EE24EA94FE2C03E010E028EC30E0C5
:1046100049E051E064E170E082E593E00E947D10A2
:10462000409111015091120120910E0130910F0122
:1046300060910B0170910C01421753070CF46DC28D
:10464000461757070CF466C220918B0230918C02FA
:104650002150310964E6629FC001639F900D1124CF
:10466000BA010E94762ACB0177FF02C090E080E079
:104670000A96880F991F90930901809308012FEFE4
:104680003FEF45E050E06BE071E00E9420140E9493
:10469000E20C68517C4F8F4F9F4F60936E02709376
:1046A0006F0280937002909371020E94E20C00915D
:1046B000720210917302209174023091750260179A
:1046C000710782079307D0F180911301882309F4C1
:1046D00042C2F12CE12C06E110E023E230E048E197
:1046E00051E06AE570E082E593E00E947D10EE24DF
:1046F000EA94FE2C04E110E027E030E048E151E0CC
:1047000064E670E082E593E00E947D1027E030E0EF
:1047100048E151E06DE670E082E593E00E947D1093
:104720000E94E20C6C507E4F8F4F9F4F609372023D
:104730007093730280937402909375020E94E20C4E
:10474000009178021091790220917A0230917B02D7
:104750006017710782079307A0F1009191021091F1
:10476000920280917602909177028230910509F44D
:1047700035C20CF0F3C1009709F40AC2019709F49D
:104780001CC20230110509F49DC20CF05AC2011579
:10479000110509F471C20130110509F482C21093A8
:1047A0007702009376020E94E20C6C507E4F8F4F8E
:1047B0009F4F609378027093790280937A0290936E
:1047C0007B0284E00E94030C019709F0AEC2D092F4
:1047D0007C0282E00E94030C019709F0B3C2D092E0
:1047E0007D0287E00E94030C019709F0C2C2D092BB
:1047F0007E0280911301882309F4CCC08091950238
:10480000882309F458C080919402882309F453C086
:1048100080919302882309F44EC080919102909177
:104820009202019666E070E00E94762A90939202CE
:10483000809391020E94361C66EE71E084EB92E058
:104840000E94D31C4090910250909202052C000CC3
:104850006608770877FEA5C26DE284EB92E00E94BD
:104860008E0D22273327A901241935094609570936
:1048700019A28E010F5D1F4FCA01B9012AE030E075
:1048800040E050E00E948A2A605DF80162938F0147
:10489000211531054105510579F70115110529F05B
:1048A000B80184EB92E00E94D31C69E871E084EBCC
:1048B00092E00E94D31C80919502811121C00E9438
:1048C000E20C00918D0210918E0220918F023091A6
:1048D0009002601771078207930790F000918B0296
:1048E00010918C0280911101909112010817190703
:1048F00009F06FC2D092950210929C0210929B0216
:1049000080919402811121C00E94E20C00918702E3
:10491000109188022091890230918A0260177107F4
:104920008207930790F00091850210918602809192
:104930000E0190910F010817190709F012C3D092C8
:1049400094021092A3021092A2028091930281110C
:1049500021C00E94E20C00918102109182022091FC
:10496000830230918402601771078207930790F0E9
:1049700000917F021091800280910B0190910C01B7
:104980000817190709F0B7C3D09293021092AA0230
:104990001092A90280911301882309F4AEC00091FE
:1049A0009B0210919C020115110599F10E948B0C3C
:1049B00040909702509098026090990270909A02ED
:1049C000641575058605970520F170909602672D90
:1049D00083E00E942C0C7D24709296020E948B0C26
:1049E0002B013C01000F111F980150E040E060E4F2
:1049F00072E48FE090E00E94AC2A420E531E641EC7
:104A0000751E40929702509298026092990270929D
:104A10009A020091A2021091A3020115110599F1C9
:104A20000E948B0C40909E0250909F026090A002CA
:104A30007090A102641575058605970520F17090A8
:104A40009D02672D85E00E942C0C7D2470929D02B2
:104A50000E948B0C2B013C01000F111F980150E0AC
:104A600040E060E472E48FE090E00E94AC2A420EE5
:104A7000531E641E751E40929E0250929F026092C9
:104A8000A0027092A1020091A9021091AA02011540
:104A9000110599F10E948B0C4090A5025090A6023E
:104AA0006090A7027090A8026415750586059705A9
:104AB00020F17090A402672D86E00E942C0C7D24CA
:104AC0007092A4020E948B0C2B013C01000F111F5D
:104AD000980150E040E060E472E48FE090E00E94D2
:104AE000AC2A420E531E641E751E4092A5025092BF
:104AF000A6026092A7027092A80240E050E0452B07
:104B000009F463CD0E94580D882309F45ECD0E94FC
:104B100000005BCD241735078CF02617370774F09B
:104B2000409185025091860241505109E4E6E49F8C
:104B3000C001E59F900D1124B90193CD20917F0212
:104B40003091800221503109F4E6F29FC001F39FB9
:104B5000900D112486CD0E940F1CE2CD843091056A
:104B600009F45EC00CF44BC0059709F00ACE30E0A2
:104B700020E046E050E06BED70E085E290E00E94BE
:104B800020142FEF3FEF43E050E06BED70E010C0DA
:104B900030E020E046E050E061E370E085E290E044
:104BA0000E9420142FEF3FEF43E050E061E370E0FC
:104BB00085E290E00E942014E4CD30E020E046E061
:104BC00050E067E570E085E290E00E9420142FEF4E
:104BD0003FEF43E050E067E570E0EACF30E020E0EF
:104BE00046E050E065E770E085E290E00E94201426
:104BF0002FEF3FEF43E050E065E770E0D9CF30E0C2
:104C000020E046E050E063E970E085E290E00E9439
:104C100020142FEF3FEF43E050E063E970E0C8CF8E
:104C200030E020E046E050E061EB70E085E290E0AB
:104C30000E9420142FEF3FEF43E050E061EB70E063
:104C4000B7CF0430110509F45FC00CF44CC0053037
:104C5000110509F0A4CD20EE37E046E050E06BED01
:104C600070E085E290E00E9420142FEF3FEF43E0D8
:104C700050E06BED70E010C020EE37E046E050E011
:104C800061E370E085E290E00E9420142FEF3FEF97
:104C900043E050E061E370E085E290E00E94201480
:104CA0007ECD20EE37E046E050E067E570E085E23B
:104CB00090E00E9420142FEF3FEF43E050E067E5C3
:104CC00070E0EACF20EE37E046E050E065E770E0C4
:104CD00085E290E00E9420142FEF3FEF43E050E088
:104CE00065E770E0D9CF20EE37E046E050E063E9B9
:104CF00070E085E290E00E9420142FEF3FEF43E048
:104D000050E063E970E0C8CF20EE37E046E050E0C5
:104D100061EB70E085E290E00E9420142FEF3FEFFE
:104D200043E050E061EB70E0B7CF80917C028823D4
:104D300009F44FCD809113018D25809313011092BA
:104D40007C0247CD80917D02882309F44ACD809171
:104D5000910290919202019666E070E00E94762A9C
:104D600090939202809391020E94361C10927D02D1
:104D700038CD80917E02882309F43BCD8091910249
:104D800090919202009759F485E090E090939202FE
:104D9000809391020E94361C10927E022ACD0197C8
:104DA000F5CFA301920119A28E010F5D1F4FCA0119
:104DB000B9012AE030E040E050E00E948A2A605DBC
:104DC000F80162938F01211531054105510579F7ED
:104DD00064CD80919102909192028230910509F404
:104DE00056C004F50097A9F18130910509F441C03E
:104DF00020911001222309F474C010929C02109299
:104E00009B020E94E20C625E7F4F8F4F9F4F609328
:104E10008D0270938E0280938F0290939002109275
:104E200010016ECD8430910509F44DC00CF43DC0E5
:104E300085309105E9F69801220F331FF901EF55EE
:104E4000FC4E459154914EA3852EF901E55CFF4E31
:104E50000DC09801220F331FF901E358F94E459117
:104E600054914EA3852EF901E55EFC4E25903490B9
:104E7000BFCF9801220F331FF901E15BFA4E459134
:104E800054914EA3852EF901E351FE4EEFCF9801C8
:104E9000220F331FF901EB5BFA4E459154914EA35B
:104EA000852EF901ED51FE4EE1CF9801220F331FFF
:104EB000F901EF5BFA4E459154914EA3852EF9010D
:104EC000E152FE4ED3CF9801220F331FF901E35C6C
:104ED000FA4E459154914EA3852EF901E552FE4EAE
:104EE000C5CF880F991F880F991FFC01EC5EFE4FFC
:104EF0004080518062807380FEA1F0939B0280927B
:104F00009C020E94E20C6FA378A789A79AA7B1011F
:104F1000032C000C880B990B0E947D29A3019201A0
:104F20000E94E1290E944529072E000C880B990B4D
:104F30002FA138A549A55AA5620F731F841F951F7D
:104F400060938D0270938E0280938F0290939002F3
:104F50000F5F1F4F10938C0200938B02D0921001B1
:104F6000CFCC80919102909192028230910509F408
:104F700058C004F50097A9F18130910509F443C0A8
:104F800020910D01222309F476C01092A302109201
:104F9000A2020E94E20C625E7F4F8F4F9F4F609390
:104FA0008702709388028093890290938A021092FC
:104FB0000D01CBCC8430910509F44FC00CF43FC0F7
:104FC00085309105E9F69801220F331FF901EB5165
:104FD000F34F45915491C42EB52EF901E757F64F82
:104FE0000DC09801220F331FF901E153F04F459195
:104FF0005491C42EB52EF901E958F34F25913491FF
:105000003BA32AA3BDCF9801220F331FF901EF550F
:10501000F14F45915491C42EB52EF901E75BF44F41
:10502000EDCF9801220F331FF901E956F14F459159
:105030005491C42EB52EF901E15CF44FDFCF9801F5
:10504000220F331FF901ED56F14F45915491C42EB3
:10505000B52EF901E55CF44FD1CF9801220F331F33
:10506000F901E157F14F45915491C42EB52EF90144
:10507000E95CF44FC3CF880F991F880F991FFC017B
:10508000EC5EFE4F4080518062807380C092A2022D
:10509000B092A3020E94E20C6FA378A789A79AA7F7
:1050A0004AA15BA1BA01550F880B990B0E947D297B
:1050B000A30192010E94E1290E944529072E000CBC
:1050C000880B990B2FA138A549A55AA5620F731F0C
:1050D000841F951F609387027093880280938902D2
:1050E00090938A020F5F1F4F1093860200938502F0
:1050F000D0920D012ACC809191029091920282303F
:10510000910509F458C004F50097A9F18130910583
:1051100009F443C020910A01222309F476C01092B9
:10512000AA021092A9020E94E20C625E7F4F8F4F8A
:105130009F4F6093810270938202809383029093C9
:10514000840210920A0126CC8430910509F44FC0E4
:105150000CF43FC085309105E9F69801220F331F0A
:10516000F901ED54F84F45915491A42E952EF90173
:10517000E952FA4F0DC09801220F331FF901ED518A
:10518000F74F45915491A42E952EF901E95FF84F00
:10519000259134913DA32CA3BDCF9801220F331F3D
:1051A000F901E352F74F45915491A42E952EF90140
:1051B000EF5FF84FEDCF9801220F331FF901ED5249
:1051C000F74F45915491A42E952EF901E950F94FCE
:1051D000DFCF9801220F331FF901E153F74F4591BB
:1051E0005491A42E952EF901ED50F94FD1CF98018D
:1051F000220F331FF901E553F74F45915491A42E27
:10520000952EF901E151F94FC3CF880F991F880FEF
:10521000991FFC01EC5EFE4F4080518062807380DC
:10522000A092A9029092AA020E94E20C6FA378A712
:1052300089A79AA74CA15DA1BA01550F880B990BBC
:105240000E947D29A30192010E94E1290E94452923
:10525000072E000C880B990B2FA138A549A55AA53C
:10526000620F731F841F951F6093810270938202E7
:1052700080938302909384020F5F1F4F10938002EC
:1052800000937F02D0920A0185CB0E944C2968943A
:10529000B1110C94DB2908950E94C02988F09F5712
:1052A00098F0B92F9927B751B0F0E1F0660F771F4A
:1052B000881F991F1AF0BA95C9F714C0B13091F040
:1052C0000E94DA29B1E008950C94DA29672F782F2B
:1052D0008827B85F39F0B93FCCF386957795679505
:1052E000B395D9F73EF490958095709561957F4F71
:1052F0008F4F9F4F0895E89409C097FB3EF4909517
:105300008095709561957F4F8F4F9F4F9923A9F09E
:10531000F92F96E9BB279395F6958795779567952D
:10532000B795F111F8CFFAF4BB0F11F460FF1BC071
:105330006F5F7F4F8F4F9F4F16C0882311F096E904
:1053400011C0772321F09EE8872F762F05C06623B2
:1053500071F096E8862F70E060E02AF09A95660F6B
:10536000771F881FDAF7880F9695879597F9089524
:1053700057FD9058440F551F59F05F3F71F0479506
:10538000880F97FB991F61F09F3F79F087950895EB
:10539000121613061406551FF2CF4695F1DF08C00A
:1053A000161617061806991FF1CF86957105610527
:1053B00008940895E894BB2766277727CB0197F9CF
:1053C00008950E94F4290C94652A0E94572A38F007
:1053D0000E945E2A20F0952311F00C944E2A0C9422
:1053E000542A11240C94DB290E94B82970F3959F4C
:1053F000C1F3950F50E0551F629FF001729FBB27CC
:10540000F00DB11D639FAA27F00DB11DAA1F649F67
:105410006627B00DA11D661F829F2227B00DA11D1A
:10542000621F739FB00DA11D621F839FA00D611DA0
:10543000221F749F3327A00D611D231F849F600DC1
:10544000211D822F762F6A2F11249F5750409AF0EA
:10545000F1F088234AF0EE0FFF1FBB1F661F771F76
:10546000881F91505040A9F79E3F510580F00C9441
:105470004E2A0C94DB295F3FE4F3983ED4F38695E3
:1054800077956795B795F795E7959F5FC1F7FE2BE1
:10549000880F911D9695879597F9089597F99F67BD
:1054A00080E870E060E008959FEF80EC08950024AC
:1054B0000A941616170618060906089500240A9479
:1054C00012161306140605060895092E0394000CFF
:1054D00011F4882352F0BB0F40F4BF2B11F460FF8E
:1054E00004C06F5F7F4F8F4F9F4F089597FB072E2C
:1054F00016F4009407D077FD09D00E94F12A07FC2A
:1055000005D03EF4909581959F4F089570956195D3
:105510007F4F0895A1E21A2EAA1BBB1BFD010DC0EF
:10552000AA1FBB1FEE1FFF1FA217B307E407F50753
:1055300020F0A21BB30BE40BF50B661F771F881F2F
:10554000991F1A9469F760957095809590959B01C5
:10555000AC01BD01CF010895052E97FB1EF4009408
:105560000E94C32A57FD07D00E948A2A07FC03D055
:105570004EF40C94C32A50954095309521953F4F99
:105580004F4F5F4F089590958095709561957F4F2F
:105590008F4F9F4F08950E94D32A332312F48A1B02
:1055A0009B0B0C94E42AA29FB001B39FC001A39F60
:1055B000700D811D1124911DB29F700D811D11244C
:1055C000911D08950E94D32AB7FF0895821B930B63
:1055D0000895B7FF0C940B2B0E940B2B821B930B8F
:1055E0000895AA1BBB1B51E107C0AA1FBB1FA6172A
:1055F000B70710F0A61BB70B881F991F5A95A9F77C
:1056000080959095BC01CD010895EE0FFF1F059088
:10561000F491E02D09940E94D32AA59F900DB49F88
:10562000900DA49F800D911D1124089581E090E0BC
:0A563000F8940C941B2BF894FFCFA4
:10563A00FFFFFFFFFFFFFFFF1400015300013600C9
:10564A0001430001000080400000C03F000080408C
:10565A000000803F0000803F0000803F0000000003
:10566A008E0DEE0C1B0DDB0D4C0D2A0D3E0D0000B0
:10567A000000B218EE0C0C1C0B1C6F0F1113DF127A
:10568A007612F51136125E1B15148C138213131140
:10569A00841102115B1AE3198419E21CE10E494CC8
:1056AA004939333431204172717569312D47727528
:1056BA00706F205369657465000D0A004E6F636848
:1056CA0065206465206C756E6100656E7472652074
:1056DA007275696E6173004D69206C7570697461C9
:1056EA00005061726120456C69736100506172619A
:1056FA00204164656C696E6100536172696173204F
:10570A00536F6E670043616E63696F6E00736F72E9
:10571A0070726573610054726967676572206E659D
:0C572A00787420736F6E6720746F0000AD
:00000001FF
