:100000000C9478050C94A0050C94A0050C94A00504
:100010000C94A0050C94A0050C94A0050C94A005CC
:100020000C94A0050C94A0050C94A0050C94A005BC
:100030000C94A0050C94A0050C94A0050C94A005AC
:100040000C9437180C94A0050C94A7180C948118E4
:100050000C94A0050C94A0050C94A0050C94A0058C
:100060000C94D9180C94A00500000000003E5B4FD2
:100070005B3E3E6B4F6B3E1C3E7C3E1C183C7E3C08
:10008000181C577D571C1C5E7F5E1C00183C180016
:10009000FFE7C3E7FF0018241800FFE7DBE7FF30A6
:1000A000483A060E2629792926407F050507407F14
:1000B00005253F5A3CE73C5A7F3E1C1C08081C1C87
:1000C0003E7F14227F22145F5F005F5F06097F017D
:1000D0007F006689956A606060606094A2FFA29468
:1000E00008047E040810207E201008082A1C080836
:1000F0001C2A08081E101010100C1E0C1E0C303884
:100100003E3830060E3E0E06000000000000005F84
:1001100000000007000700147F147F14242A7F2AA0
:100120001223130864623649562050000807030062
:10013000001C2241000041221C002A1C7F1C2A08AE
:10014000083E080800807030000808080808000011
:1001500060600020100804023E5149453E00427F85
:10016000400072494949462141494D331814127FD4
:100170001027454545393C4A494931412111090774
:100180003649494936464949291E000014000000F5
:1001900040340000000814224114141414140041C7
:1001A00022140802015909063E415D594E7C121184
:1001B000127C7F494949363E414141227F414141BC
:1001C0003E7F494949417F090909013E4141517337
:1001D0007F0808087F00417F41002040413F017FA8
:1001E000081422417F404040407F021C027F7F0470
:1001F00008107F3E4141413E7F090909063E4151B9
:10020000215E7F09192946264949493203017F01A8
:10021000033F4040403F1F2040201F3F4038403FA9
:10022000631408146303047804036159494D4300BF
:100230007F4141410204081020004141417F0402F6
:10024000010204404040404000030708002054548D
:1002500078407F284444383844444428384444286B
:100260007F385454541800087E090218A4A49C78BE
:100270007F0804047800447D40002040403D007F1A
:100280001028440000417F40007C047804787C08FA
:100290000404783844444438FC18242418182424CE
:1002A00018FC7C08040408485454542404043F44B3
:1002B000243C4040207C1C2040201C3C4030403CE2
:1002C00044281028444C9090907C4464544C440042
:1002D00008364100000077000000413608000201A6
:1002E0000204023C2623263C1EA1A161123A404092
:1002F000207A38545455592155557941225454780F
:1003000042215554784020545579400C1E527212A7
:100310003955555559395454545939555454580030
:1003200000457C410002457D420001457C407D1234
:1003300011127DF0282528F07C5455450020545496
:100340007C547C0A097F4932494949323A44444441
:100350003A324A4848303A4141217A3A424020787C
:10036000009DA0A07D3D4242423D3D4040403D3C7D
:1003700024FF2424487E4943662B2FFC2F2BFF09A2
:1003800029F620C0887E0903205454794100004496
:100390007D413048484A32384040227A007A0A0A81
:1003A000727D0D19317D2629292F282629292926F4
:1003B00030484D4020380808080808080808382F39
:1003C00010C8ACBA2F102834FA00007B00000814C3
:1003D0002A142222142A14085500550055AA55AA99
:1003E00055AAFF55FF55FF000000FF00101010FF39
:1003F00000141414FF001010FF00FF1010F010F094
:10040000141414FC001414F700FF0000FF00FF1484
:1004100014F404FC141417101F10101F101F1414D0
:10042000141F00101010F0000000001F101010101A
:100430001F10101010F010000000FF10101010100E
:1004400010101010FF10000000FF140000FF00FF4C
:1004500000001F10170000FC04F4141417101714E8
:1004600014F404F40000FF00F7141414141414140A
:10047000F700F7141414171410101F101F1414147D
:10048000F4141010F010F000001F101F0000001FE7
:1004900014000000FC140000F010F01010FF10FF1A
:1004A000141414FF141010101F00000000F010FFAF
:1004B000FFFFFFFFF0F0F0F0F0FFFFFF0000000093
:1004C00000FFFF0F0F0F0F0F3844443844FC4A4A17
:1004D0004A347E02020606027E027E0263554941CC
:1004E000633844443C04407E201E2006027E020203
:1004F00099A5E7A5991C2A492A1C4C7201724C3017
:100500004A4D4D303048784830BC625A463D3E49ED
:100510004949007E0101017E2A2A2A2A2A44445F91
:10052000444440514A444040444A51400000FF0185
:1005300003E080FF000008086B6B08361236243693
:10054000060F090F060000181800000010100030F8
:1005500040FF0101001F01011E00191D1712003C80
:100560003C3C3C0000000000EF03038002CF03008E
:10057000C130ED0464031281E803850078CB0539AE
:100580002C003402F70120EA020000C00123C1015F
:1005900010C5023E28C701863601483701003A01DE
:1005A00055B1020018B603088227F20100260101A6
:1005B000E00F0F312B0C0E084EF1370710030E0918
:1005C00000E10F000E1403110731C148080F0C3170
:1005D000360F11802980000B026E021003BA024B05
:1005E00002D2019F010B026E024B02D20188010B65
:1005F000026E021003BA024B02D2013F030B026EDD
:10060000021003BA024B02D2019F010B026E024B91
:1006100002D20188010B026E021003BA024B02D211
:10062000013F0300000601260137015D018801003A
:100630000088015D015D0137015D01370126010080
:10064000000601260137010000260137015D010087
:100650000037015D014A01880100008801000000A7
:10066000000601260137015D014A0137014A0137C1
:10067000014A01F70026010601DC007D007D007DB6
:1006800000FA007D007D00FA007D007D00FA007D0B
:1006900000FA007D007D007D00FA007D007D006590
:1006A000047D007D007D00FA007D007D00FA007D64
:1006B000007D00FA007D00FA007D007D007D00FADB
:1006C000007D007D0065047701FA007D007D007DDE
:1006D00000E8037701FA007D007D007D00BB00BBD0
:1006E0000065047D007D007D0071027D007D007D40
:1006F0000071027D007D007D00FA0077017D007DA4
:1007000000FA007701FA007D007D007D002C012CAD
:10071000012C012C012C012C012C012C01840383C0
:10072000009C00C400AF0093007500680083009C2B
:100730000093007500620083009C00C400AF00932A
:100740000075006800750083009C00C400AF009332
:10075000007500680083006E0293007500620083DC
:10076000009C00C400AF0093007500680000008387
:100770000083008300830083008300830083008361
:100780000083008300830083008300830083006272
:100790000062006200620062006200620062006249
:1007A0000062006200620062006200620062006833
:1007B00000680068006800680068006800680075EC
:1007C0000075007500750075007500750075009C5A
:1007D000009C009C009C009C009C009C009C006273
:1007E00000620062009C009C009C00930093000645
:1007F00001060106010601060106010601060106C1
:10080000017D007D007D00FA007D007D00FA007D05
:10081000007D00FA007D00FA007D007D007D00FA79
:10082000007D007D00E803FA007D007D007D00FA78
:10083000007D007D00FA007D007D00FA007D00FA59
:10084000007D007D007D00FA007D007D005F05EEEB
:10085000027D007D007D007D007D007D007D007DAE
:10086000007D007D007D007D007D007D007D007DA0
:10087000007D007D007D007D007D007D007D007D90
:10088000007D007D007D007D007D007D007D007D80
:10089000007D007D007D007D007D007D007D007D70
:1008A000007D007D007D007D007D007D007D007D60
:1008B000007D007D007D007D007D007D007D007D50
:1008C000007D007D007D007D007D007D007D007D40
:1008D00000FA00FA00FA00FA00FA00FA00FA00FA48
:1008E000001400D6067D007D00FA007102EE027D44
:1008F00000FA007D007D007D007D007D007D007D93
:10090000007D007D007D007D007D007D007D007DFF
:10091000007D007D007D007D007D007D007D007DEF
:10092000006504E8037D007D007D007D007D007D85
:10093000007D007D007D007D007D007D007D007DCF
:10094000007D007D007D007D007D007D007D007DBF
:10095000007D007D007D007D007D007D007D007DAF
:10096000007D007D007D007D007D007D007D007D9F
:10097000007D007D007D007D007D007D007D007D8F
:10098000007D007D007D007D007D007D007D007D7F
:10099000007D007D007D007D007D0077017D007D74
:1009A000003075B80BE803E803E803E803E803E860
:1009B00003E803E803140041000000310041000097
:1009C00000340000003A0041004100410041004174
:1009D000004100410041004100410041004100410F
:1009E00000410041004100410041004100410041FF
:1009F000004100410034000000410041004100413D
:100A000000410041004100410041004100410041DE
:100A1000004100410041004100310031003100310E
:100A2000003100310031003100310031003100313E
:100A30000031003100310031003400340034003422
:100A40000034003400340034003A003A003A003AEE
:100A5000003A003A003A003A004E004E004E004E76
:100A6000004E004E004E004E003100310031004E6D
:100A70000049004900F7000000DC000000B8010058
:100A8000008300830083008300830083008300834E
:100A900000830000000000240027002A000000005E
:100AA00000230026002900000000080002010000C9
:100AB0000304070000000000000000010204081009
:100AC00020408001020408102001020408102000C8
:100AD000000000250028002B000404040404040482
:100AE0000402020202020203030303030300F419D7
:100AF00011241FBECFEFD8E0DEBFCDBF11E0A0E0D4
:100B0000B1E0E0E7F6E402C005900D92A83EB1071F
:100B1000D9F723E0A8EEB1E001C01D92A138B207D9
:100B2000E1F715E0C8E7D5E004C02197FE010E9477
:100B30002023C737D107C9F70E94C11A0C94362366
:100B40000C940000833081F028F4813099F08230D9
:100B5000A9F008958730A9F08830C9F08430B1F445
:100B6000809180008F7D03C0809180008F7780937B
:100B70008000089584B58F7784BD089584B58F7DF6
:100B8000FBCF8091B0008F778093B0000895809163
:100B9000B0008F7DF9CFCF93DF93282F30E0F9019C
:100BA000E955F54F8491F901E554F54FD491F901D8
:100BB000E752F54FC491CC23A1F081110E94A20508
:100BC000EC2FF0E0EE0FFF1FE356F54FA591B49127
:100BD000EC91ED2381E090E009F480E0DF91CF918A
:100BE000089580E090E0FACF1F93CF93DF93282FF2
:100BF00030E0F901E955F54F8491F901E554F54FDD
:100C0000D491F901E752F54FC491CC23A9F0162FE6
:100C100081110E94A205EC2FF0E0EE0FFF1FE153BF
:100C2000F54FA591B4918FB7F894EC91111108C0CC
:100C3000D095DE23DC938FBFDF91CF911F91089574
:100C4000DE2BF8CFCF93DF9390E0FC01E554F54F16
:100C500024918752954FFC0184918823D1F090E034
:100C6000880F991FFC01ED56F54FA591B491FC0139
:100C7000E153F54FC591D49161110EC09FB7F8941F
:100C80008C91E22FE0958E238C932881E223E883D8
:100C90009FBFDF91CF9108958FB7F894EC91E22B2D
:100CA000EC938FBFF6CF3FB7F89480919C02909160
:100CB0009D02A0919E02B0919F0226B5A89B05C0FF
:100CC0002F3F19F00196A11DB11D3FBFBA2FA92FCB
:100CD000982F8827BC01CD01620F711D811D911DC8
:100CE00042E0660F771F881F991F4A95D1F7089534
:100CF0008F929F92AF92BF92CF92DF92EF92FF922C
:100D00004B015C010E9453066B017C010E9453065B
:100D10006C197D098E099F09683E73408105910514
:100D2000A8F321E0821A9108A108B10888EEC80E44
:100D300083E0D81EE11CF11C81149104A104B104CC
:100D400029F7FF90EF90DF90CF90BF90AF909F90EA
:100D50008F9008952FB7F89460919802709199023E
:100D600080919A0290919B022FBF0895AF92BF92FB
:100D7000CF92DF92EF92FF920F931F93CF93DF9367
:100D80006C017B018B01040F151FEB015E01AE1896
:100D9000BF08C017D10759F06991D601ED91FC91B8
:100DA0000190F081E02DC6010995892B79F7C501E5
:100DB000DF91CF911F910F91FF90EF90DF90CF9037
:100DC000BF90AF900895FC01538D448D252F30E0E6
:100DD000842F90E0821B930B541710F0CF96089548
:100DE00001970895FC01918D828D981761F0A28D75
:100DF000AE0FBF2FB11D5D968C91928D9F5F9F733B
:100E0000928F90E008958FEF9FEF0895FC01918DF0
:100E1000828D981731F0828DE80FF11D858D90E05D
:100E200008958FEF9FEF0895FC01918D228D892FFA
:100E300090E0805C9F4F821B91098F7399270895E2
:100E400080EA92E00E94140721E0892B09F420E057
:100E5000822F089580E090E0892B29F00E942007DE
:100E600081110C9400000895FC01A48DA80FB92FE6
:100E7000B11DA35ABF4F2C91848D90E001968F73C2
:100E80009927848FA689B7892C93A089B1898C91E1
:100E9000837080648C93938D848D981306C0028830
:100EA000F389E02D80818F7D80830895EF92FF92FA
:100EB0000F931F93CF93DF93EC0181E0888F9B8D7D
:100EC0008C8D98131AC0E889F989808185FF15C037
:100ED0009FB7F894EE89FF896083E889F98980815A
:100EE0008370806480839FBF81E090E0DF91CF9129
:100EF0001F910F91FF90EF900895F62E0B8D10E04B
:100F00000F5F1F4F0F731127E02E8C8D8E110CC0B9
:100F10000FB607FCFACFE889F989808185FFF5CF04
:100F2000CE010E943407F1CFEB8DEC0FFD2FF11DA8
:100F3000E35AFF4FF0829FB7F8940B8FEA89FB8941
:100F400080818062CFCFCF93DF93EC01888D88239F
:100F5000B9F0AA89BB89E889F9898C9185FD03C01C
:100F6000808186FD0DC00FB607FCF7CF8C9185FF01
:100F7000F2CF808185FFEDCFCE010E943407E9CF0B
:100F8000DF91CF91089520910F02260F3327331F51
:100F900021323105ECF420913302FC0190E080E035
:100FA000243069F082E00895A0910F022191AC01F4
:100FB00041515E4FA40FB52FB11D2C93019686179A
:100FC00098F380910F02680F60930F0280E00895FC
:100FD00081E0089508958FEF9FEF08958FEF9FEFC1
:100FE00008958091E80190E0919581959109089587
:100FF000CF93DF93CB01EA01642F0E94C307CE0198
:10100000DF91CF910895CF93DF931F92CDB7DEB7D5
:10101000698361E0CE0101960E94C30781E090E000
:101020000F90DF91CF910895FC01A5A1B6A18C91FD
:1010300092A589238C93A5A1B6A18C9191A5892B0A
:101040008C9308950F931F93CF93DF93EC018B0143
:101050008DA981110DC01EBD0DB407FEFDCF0EBDC3
:101060000DB407FEFDCFDF91CF911F910F91089531
:101070008130E9F480E1E9A1FAA1908117FF14C061
:101080002DA1922B9083EBA1FCA190812FA1922BFB
:101090009083EBA1FCA1908128A592239083000F5F
:1010A000111F815041F7DFCF2EA19223EBCFEF8D9F
:1010B000F8A11083CE010E941408EF8DF8A10083DF
:1010C000CE01DF91CF911F910F910C941408FC0178
:1010D00085A9811105C06EBD0DB407FEFDCF089531
:1010E0008130E1F488E0A1A1B2A19C9167FF13C017
:1010F00025A1922B9C93A3A1B4A19C9127A1922BF3
:101100009C93660FA3A1B4A19C9120A592239C93CC
:10111000815049F7089526A19223ECCFA78DB0A165
:101120006C93CF010C941408CF93DF93EC01ED8DF9
:10113000FE8D80819CA989238083CE010E9467084F
:10114000ED8DFE8D80819BA9892B8083DF91CF91CE
:101150000895AF92BF92CF92DF92EF92FF920F93DA
:101160001F93CF93DF93EC015B016A01215031099A
:101170007901E60EF71E01501109040F151F809129
:101180000601909107018617970739F480910401B1
:10119000909105018E159F05A1F06AE2CE010E9493
:1011A0009408B501CE010E942208B701CE010E9429
:1011B0002208B0920701A0920601F0920501E09288
:1011C000040180910201909103018C159D0539F471
:1011D000809100019091010180179107A1F06BE2CD
:1011E000CE010E949408B601CE010E942208B801E7
:1011F000CE010E942208D0920301C09202011093F6
:101200000101009300016CE2CE01DF91CF911F91AB
:101210000F91FF90EF90DF90CF90BF90AF900C9424
:101220009408FC0185A9811104C091A182A19CBDF3
:101230008DBD08951F93CF93DF93EC01162FE881A6
:10124000F9810284F385E02D0995112371F06DADCC
:10125000CE010E949408E881F9810688F789E02D83
:10126000CE01DF91CF911F9109946EADF1CFAF9276
:10127000BF92CF92DF92EF92FF920F931F93CF9383
:10128000DF93EC0177FD38C0888599856817790769
:101290009CF557FD31C08A859B854817590764F531
:1012A00069017A015B01E881F9810284F385E02D0F
:1012B000CE010995E881F98102A4F3A5E02D01E0B2
:1012C00010E021E030E0A701B501CE010995B6019B
:1012D000CE010E942208E881F9810688F789E02D75
:1012E000CE01DF91CF911F910F91FF90EF90DF9092
:1012F000CF90BF90AF900994DF91CF911F910F9144
:10130000FF90EF90DF90CF90BF90AF9008958F92B5
:101310009F92AF92BF92CF92DF92EF92FF920F9384
:101320001F93CF93DF93EC0149015701E881F981C5
:1013300002A4F3A5E02D09959401D8010E94E622AC
:101340006B017C01C114D104E104F10409F490C0E3
:101350008DA9811115C081E0C81AD108E108F108F2
:101360008FEFC816D806E806F80609F481C0BEBC9F
:101370000DB407FEFDCFAEBC0DB407FEFDCFEBCF25
:10138000813009F045C081E0C81AD108E108F108B0
:101390008FEFC816D806E806F80609F469C09B2D39
:1013A00088E0E9A1FAA1208197FF2CC03DA1232B61
:1013B0002083EBA1FCA120813FA1232B2083EBA163
:1013C000FCA1208138A523232083990F815049F760
:1013D0009A2D88E0E9A1FAA1208197FF16C03DA1CE
:1013E000232B2083EBA1FCA120813FA1232B208371
:1013F000EBA1FCA1208138A523232083990F8150E4
:1014000049F7C1CF3EA12323D3CF3EA12323E9CF68
:10141000BA1016C0CC0CDD1CEE1CFF1CEF8DF8A121
:10142000B08281E0C81AD108E108F1088FEFC81630
:10143000D806E806F806E1F0CE010E941408F1CFC4
:1014400081E0C81AD108E108F1088FEFC816D80664
:10145000E806F80669F0EF8DF8A1B082CE010E948F
:101460001408EF8DF8A1A082CE010E941408E8CFE5
:10147000DF91CF911F910F91FF90EF90DF90CF9070
:10148000BF90AF909F908F9008958F929F92AF9250
:10149000BF92CF92DF92EF92FF920F931F93CF9361
:1014A000DF934C01EB016A01590137FF07C0C90105
:1014B0000196C80FD91FB194A194B108F401A08579
:1014C000B185CA17DB070CF058C017FF07C0C80169
:1014D0000196C80ED91E119501951109F401828556
:1014E0009385C816D9060CF048C0FE01EA0DFB1D15
:1014F000AF014150510957FD40C0B601600F711F47
:101500009B012150310937FD38C0D7FF03C05F016F
:10151000D0E0C0E0D7FE03C08B01D12CC12C4A170C
:101520005B071CF05D01AC1ABD0A281739071CF0D7
:101530008C010C191D09D401ED91FC910284F385F5
:10154000E02DC40109959501A601BE01C4010E94C8
:101550008709D401ED91FC910688F789E02DC4013B
:10156000DF91CF911F910F91FF90EF90DF90CF907F
:10157000BF90AF909F908F900994DF91CF911F9172
:101580000F91FF90EF90DF90CF90BF90AF909F9022
:101590008F900895EF92FF920F931F9321153105BD
:1015A00029F00115110511F00E94450A1F910F91B4
:1015B000FF90EF9008958F929F92AF92BF92CF923B
:1015C000DF92EF92FF920F931F93CF93DF935C0113
:1015D0004B016A01E90177FD52C0DC0118968D913B
:1015E0009C91681779070CF04AC0209709F447C00E
:1015F00037FF07C0C9010196C80ED91ED195C19504
:10160000D109F50182859385C816D906C4F5A601CE
:101610004C0F5D1F9A012150310937FD30C0D7FEB4
:1016200003C0EA01D12CC12C281739071CF0EC01AA
:10163000CC19DD09D501ED91FC910284F385E02DF3
:10164000C501099578018E0121E030E0A601B401C1
:10165000C5010E948709D501ED91FC910688F789A3
:10166000E02DC501DF91CF911F910F91FF90EF9079
:10167000DF90CF90BF90AF909F908F900994DF91B3
:10168000CF911F910F91FF90EF90DF90CF90BF907F
:10169000AF909F908F9008958F929F92AF92BF923C
:1016A000CF92DF92EF92FF920F931F93CF93DF932E
:1016B0005C016B014A01E90157FD52C0DC011A9639
:1016C0008D919C91481759070CF04AC0209709F456
:1016D00047C037FF07C0C9010196C80ED91ED19572
:1016E000C195D109F50180859185C816D906C4F543
:1016F000A6014C0F5D1F9A012150310937FD30C002
:10170000D7FE03C0EA01D12CC12C281739071CF0E1
:10171000EC01CC19DD09D501ED91FC910284F38532
:10172000E02DC5010995780101E010E09E01A401BA
:10173000B601C5010E948709D501ED91FC9106888B
:10174000F789E02DC501DF91CF911F910F91FF9097
:10175000EF90DF90CF90BF90AF909F908F900994C3
:10176000DF91CF911F910F91FF90EF90DF90CF907D
:10177000BF90AF909F908F900895EF92FF920F933C
:101780001F93CF93DF9377FD32C0DC011896ED9164
:10179000FC916E177F075CF52115310541F137FF8C
:1017A00007C0F90131964E0F5F1F31952195310920
:1017B000DC011A96ED91FC914E175F07C4F4EA0123
:1017C000C20FD31FDE011197B7FD11C057FF03C031
:1017D0009E0150E040E0AE17BF071CF09F01241BA4
:1017E000350B7801890121E030E00E948709DF9103
:1017F000CF911F910F91FF90EF900895EF92FF927C
:101800000F931F93CF93DF9357FD31C0DC011A96DE
:10181000ED91FC914E175F0754F52115310539F113
:1018200037FF07C0F90131966E0F7F1F3195219563
:101830003109DC011896ED91FC916E177F07BCF41D
:10184000EB01C20FD31FDE011197B7FD10C077FF68
:1018500003C09E0170E060E0AE17BF071CF09F015F
:10186000261B370B780101E010E00E948709DF9109
:10187000CF911F910F91FF90EF9008958F929F92BB
:10188000AF92BF92CF92DF92EF92FF920F931F938E
:10189000CF93DF9347012115310509F44BC00115A2
:1018A000110509F447C037FF07C0F90131966E0FE3
:1018B0007F1F319521953109DC011896AD90BC90C0
:1018C0006A157B05BCF517FF07C0F80131964E0F6E
:1018D0005F1F119501951109DC011A96ED91FC919C
:1018E0004E175F073CF56B01C20ED31EE601219730
:1018F000D7FD20C07A01E00EF11ED7011197B7FD88
:1019000019C077FF03C0960170E060E057FF03C085
:10191000870150E040E0CA15DB051CF09501261B4D
:10192000370BAE17BF071CF08F01041B150B74019A
:101930000E948709DF91CF911F910F91FF90EF9047
:10194000DF90CF90BF90AF909F908F900895EF92CF
:10195000FF920F931F93CF93DF93EC0177FD22C08B
:101960008885998568177907ECF457FD1BC08A852F
:101970009B8548175907B4F47901E881F98102A4DD
:10198000F3A5E02D01E010E021E030E0CE01099563
:10199000B701CE01DF91CF911F910F91FF90EF9092
:1019A0000C942208DF91CF911F910F91FF90EF903F
:1019B0000895CF93DF93EC010E9411098FA987FD51
:1019C00006C0EB8DFC8D80819AA989238083DF91ED
:1019D000CF9108950895AF92BF92CF92DF92EF9288
:1019E000FF920F931F93CF93DF93EC01E62E8A01B2
:1019F000A22E0E9411098FA987FD06C0EB8DFC8DD8
:101A000080819AA989238083ED8DFE8D80819CA998
:101A1000892380836E2DCE010E946708ED8DFE8D97
:101A200080819BA9892B8083D12CC12CB12CCA1415
:101A3000DB04E4F48DA97801823079F488A9882345
:101A400061F0F801619171917F01CE010E9422083D
:101A5000FFEFCF1ADF0A8701EACFFFEFEF1AFF0A85
:101A6000F8016491CE010E946708F2CF8FA987FD2B
:101A700006C0EB8DFC8D808199A9892B8083DF9135
:101A8000CF911F910F91FF90EF90DF90CF90BF907B
:101A9000AF900895611106C060E220E050E040E0A0
:101AA0000C94EB0C61E2F9CF0F931F93CF93DF936C
:101AB0001F92CDB7DEB78C016370DC0156966C9334
:101AC0005697623009F468C0633009F46AC0613027
:101AD00009F456C088E4898380EF90E019969C93BE
:101AE0008E93189780E491E01B969C938E931A979F
:101AF000C8010E941109D801D7968C91D79787FD0C
:101B000009C05B96ED91FC915C978081D2969C9187
:101B100089238083D8015D96ED91FC915E97808149
:101B2000D4969C918923808366E3C8010E9467084C
:101B3000D8015D96ED91FC915E978081D3969C9142
:101B4000D397892B8083D5968C91823061F16981FE
:101B5000C8010E946708D801D7968C91D79787FD56
:101B600009C05B96ED91FC915C978081D1969C9128
:101B7000892B80830F90DF91CF911F910F91089552
:101B800088E2898380E491E0F8019187808780EF83
:101B900090E093878287ACCF88E8898380EF90E0DC
:101BA0009DCF88EEEECFF80180A9882381F269816C
:101BB0007A81C8010E942208CECFFC0187A987FD47
:101BC00006C0A38DB48D9C9181A9892B8C93089517
:101BD0002F923F924F925F926F927F928F929F923D
:101BE000AF92BF92CF92DF92EF92FF920F931F932B
:101BF000CF93DF93CDB7DEB728970FB6F894DEBF4B
:101C00000FBECDBF3C017E836D8358874F83690132
:101C10008EE393E00E94D90C2F813885220F331F69
:101C20002F5F3F4F4D815E818F819885481B590BF7
:101C30008601B3018EE393E00E94BD0B81E090E04A
:101C40002C012F813885421A530AC901919581953B
:101C500091099C01220F331F3C832B832F803884F2
:101C600081E090E09A838983F12CE12C57FC0DC030
:101C70008F819885019798878F832B813C812E5F78
:101C80003F4F3C832B83420E531E3FEFE31AF30A70
:101C900089819A8102969A838983480E591E2F81E1
:101CA00038852E153F050CF469C04901880C991C34
:101CB0003FEF831A930A86019401AD80BE808F8125
:101CC0009885A81AB90AA501B3016E0D7F1D8EE390
:101CD00093E00E94BD0B9401A501B3016E197F0929
:101CE0008EE393E00E94BD0B2F81388522153305CA
:101CF00019F1AA24A394B12CAE18BF088D819E813E
:101D0000A80EB91EB301620D731D860189809A80E9
:101D100092E0891A91089401A5018EE393E00E9454
:101D2000BD0BB301621973099401A5018EE393E021
:101D30000E94BD0B2F8038842F813885E216F30670
:101D40000CF494CF8EE393E028960FB6F894DEBFA0
:101D50000FBECDBFDF91CF911F910F91FF90EF90FC
:101D6000DF90CF90BF90AF909F908F907F906F90BB
:101D70005F904F903F902F900C94DD0D2F81388510
:101D80002215330509F0B5CFDDCF2F923F924F9248
:101D90005F926F927F928F929F92AF92BF92CF92FB
:101DA000DF92EF92FF920F931F93CF93DF93CDB704
:101DB000DEB7A2970FB6F894DEBF0FBECDBF9C83EF
:101DC0008B8378876F836A013A8329831E830D830F
:101DD000E216F3065CF09E2D8F2D790199838A839C
:101DE0009D818E815E834D83C92ED82E8EE393E034
:101DF0000E94D90C29813A81E216F30619F4FC8677
:101E0000EB8605C09701215031093C872B8749811A
:101E10005A818F819885481B590B5C8B4B8B1C0119
:101E2000412C512C3201812C912C5401C601AB81E3
:101E3000BC818A1B9B0B9C01990F440B550B2F8770
:101E4000388B498B5A8BC701821993099C01990FD2
:101E5000440B550B2D8B3E8B4F8B588F8B899C8958
:101E6000092E000CAA0BBB0B898F9A8FAB8FBC8FEE
:101E70008D819E81AB81BC818A1B9B0B9C01990F3C
:101E8000440B550B2D8F3E8F4F8F58A34B855C8590
:101E9000421553050CF445C0C501B4012D893E8996
:101EA0004F89588D0E94C7228B819C81820F931F7E
:101EB0009AA389A3C301B201298D3A8D4B8D5C8D04
:101EC0000E94C7226B817C81620F731F2D8D3E8D16
:101ED0004F8D58A1820E931EA41EB51E8F85988922
:101EE000A989BA89480E591E6A1E7B1EA9A1BAA1EA
:101EF0006A177B072CF0962F872FBD0199A38AA321
:101F000029A13AA1261B370B2F5F3F4F0FEF1FEF81
:101F1000A1018EE393E00E94FE0BBFEF2B1A3B0A58
:101F2000B5CF46010D2C000CAA08BB082B813C81C3
:101F3000C901330FAA0BBB0BA5019401281B390B58
:101F40004A0B5B0B2B873C874D875E87D6014D8103
:101F50005E81A41BB50B9D010B2E000C440B550B91
:101F60002F87388B498B5A8B91012E193F090E947C
:101F7000E6222B013C01D1014F815885A41BB50BF2
:101F80002B853C854D855E850E9404234B015C01B9
:101F900089819A818E199F099C01990F440B550BD9
:101FA0002F83388749875A874B895C896A01550F87
:101FB000EE08FF0889819A81821593050CF443C0CD
:101FC000C301B2012F81388549855A850E94C722F5
:101FD000AD81BE81A20FB31FBC8BAB8BC501B40119
:101FE000A70196010E94C7226B817C81620F731F3B
:101FF0002F85388949895A89420E531E641E751EE1
:102000008B859C85AD85BE85880E991EAA1EBB1E3C
:10201000AB89BC896A177B072CF0962F872FBD01EF
:102020009B8B8C8B2B893C89261B370B2F5F3F4F5B
:102030000FEF1FEFA1018EE393E00E94FE0BBFEFB5
:102040002B1A3B0AB7CF8EE393E0A2960FB6F89413
:10205000DEBF0FBECDBFDF91CF911F910F91FF90DB
:10206000EF90DF90CF90BF90AF909F908F907F9038
:102070006F905F904F903F902F900C94DD0D0895DE
:10208000FC016370668B8481958126813781613084
:1020900039F0633029F0918780873387228708954C
:1020A000318720879387828708952F923F924F929E
:1020B0005F926F927F928F929F92AF92BF92CF92D8
:1020C000DF92EF92FF920F931F93CF93DF93CDB7E1
:1020D000DEB76A970FB6F894DEBF0FBECDBF9A8FFA
:1020E000898F7A8369834A01D22E18870F8337013B
:1020F000BC2CDC0159962D913C915A972115310544
:1021000009F015C118968D919C9119976817790758
:102110000CF0D7C11A968D919C91481759070CF075
:10212000D0C14C2C512CB6E0CB9E600D711D1124FA
:102130007C876B87161617060CF0C3C1EA2DF0E0FA
:10214000FA87E98793E0EE0FFF1F9A95E1F7F88B86
:10215000EF87CF01840F951F181619060CF0B1C137
:10216000A98DBA8D58968C91811104C0BFEABD1516
:1021700008F4D394A98DBA8DED91FC911197028446
:10218000F385E02DCD010995B5E0DB9EC00111245A
:10219000E981FA81FC83EB83312C212C9C012859A5
:1021A0003F4F388F2F8B4A2D50E05E8B4D8BEF8940
:1021B000F88DE20DF31D44919E828D82D12CC12CAD
:1021C00069817A81620D731D7A8B698B842F90E00F
:1021D0009C8B8B8BE98DFA8DA081B18140FF82C0F1
:1021E000F1E0BF126FC0AF126DC01C96ED91FC9173
:1021F0002F813885A4014C0D5D1D69897A89898DEF
:102200009A8D0995EB89FC89F595E7954E2F5FEF3F
:10221000C51AD50A6D817E818D899E89680F791FC7
:102220007E836D8398E0C916D10481F6AFEF2A1A38
:102230003A0AEB81FC81E40DF51DFC83EB83F5E0AC
:102240002F16310409F0B3CF2F81388526153705B5
:10225000B9F0A98DBA8DED91FC91B1E0BB1257C0D8
:10226000AB1255C069817A816B5F7F4F0088F1891D
:10227000E02D830128E030E0A401898D9A8D099535
:10228000A98DBA8DED91FC9111970688F789E02D03
:10229000CD016A960FB6F894DEBF0FBECDBFDF91B9
:1022A000CF911F910F91FF90EF90DF90CF90BF9053
:1022B000AF909F908F907F906F905F904F903F90E6
:1022C0002F9009941E96ED91FC91EF80F88409857A
:1022D0001A8592014D815E816B817C81898D9A8DF9
:1022E000099590CF2F8138852615370509F48ACFB7
:1022F00031E0B31207C0A31205C01C96ED91FC910A
:10230000930178CF1E96ED91FC917301E0CF6B8520
:102310007C85641975090684F785E02D73010F85A6
:1023200018899201A401898D9A8D0995A9CFF90187
:1023300034969491329745915491D91AB7E0DB9E27
:10234000400D511D1124F901259134913C8B2B8BAB
:10235000FA0125903490FA013296749031963491B6
:10236000398B329664903196449041E04C1518F0C8
:102370004A1508F07FC0662D062C000C770B7C8375
:102380006B83842D042C000C990B9E838D83A98D67
:10239000BA8DED91FC9111970284F385E02DCD016A
:1023A0000995512CD12CC12CEA2DF0E0FA87E98750
:1023B0002B2D30E03C872B87A401440D511D47FC99
:1023C0005A95588F4F8B69817A81660D711D67FC14
:1023D0007A957E876D877989C71608F051CF2C2DA5
:1023E00030E04D815E81420F531FA985BA854A9F17
:1023F000C0014B9F900D5A9F900D1124FC01E80DD8
:10240000F91DF88BEF87852D612C4F89588D420F70
:10241000531F5E8B4D8B671408F050C044244394C7
:10242000480E877041F4C1010196EB89FC89E20DE9
:10243000F31DD4901C01D7FE19C0A98DBA8DED9162
:10244000FC91662D70E0B1E0BB1219C0AB1217C051
:102450002D853E85620F731F0484F585E02D2F8145
:1024600038854D895E89898D9A8D0995DD0C639437
:10247000842DD1CF1E821D821C821B8288CF4B816E
:102480005C81640F751FAB85BC856A9FC0016B9F23
:10249000900D7A9F900D112469817A81680F791FC0
:1024A0000684F785E02DEF80F88409851A859D0163
:1024B0004F855889898D9A8D0995D8CF570CC3942B
:1024C0008ACF6A960FB6F894DEBF0FBECDBFDF91FC
:1024D000CF911F910F91FF90EF90DF90CF90BF9021
:1024E000AF909F908F907F906F905F904F903F90B4
:1024F0002F9008958F929F92AF92CF92EF92FF927A
:102500000F931F93CF93DF93EC01262F898D9A8D24
:10251000009709F051C06A30D1F41D861C868D8960
:1025200048E0849F900111248E859F85820F931F20
:102530009F878E8781E090E0DF91CF911F910F916F
:10254000FF90EF90CF90AF909F908F9008956D3057
:1025500089F3CC88AD888F898823C1F08C859D85CF
:1025600036E0C39E800D911D11244885598548177A
:10257000590764F44E855F851D861C8638E0A39E4E
:10258000C0011124840F951F9F878E87EA88FB88DE
:10259000088919894E855F856C857D85CE010E94ED
:1025A00055102C898C859D8546E0249F800D911DBA
:1025B00011249D878C87BECF6A3069F41D861C86E6
:1025C000FC013896E4912D898E859F85E29F800DD0
:1025D000911D1124ADCF6D3009F4ACCFFC013496C0
:1025E0003491631708F4A6CF3296E491E61708F405
:1025F000A1CFFC01329685909490462F431B342F37
:1026000047E0349F800C911C1124F40132963491E0
:102610003196E4913323A9F1EE2399F1CC88F401AA
:102620003596E491AD884F89442301F10E2E000CBC
:10263000FF0BE30FF11DCE9EA001CF9E500D112484
:102640006C857D85460F571F6885798564177507EA
:102650006CF44E855F851D861C86FC013896E491DE
:10266000AE9E400D511D11245F874E87EA88FB887E
:10267000088919894E855F856C857D85CE010E940C
:102680005510F4013496E4912C898C859D85E29F48
:10269000800D911D11248DCF6F927F928F929F920A
:1026A000AF92BF92CF92DF92EF92FF920F931F9360
:1026B000CF93DF93EC016B015A0139014801E881A6
:1026C000F9810284F385E02D0995E881F98102887A
:1026D000F389E02D87019301A501B601CE0109958B
:1026E000A501480D591D41505109E881F981028821
:1026F000F389E02D9301B601CE010995E881F981B6
:102700000088F189E02D9401A501B601CE0109955B
:10271000C60CD71CB60161507109E881F9810088A7
:10272000F189E02D9401A501CE010995E881F98197
:102730000688F789E02DCE01DF91CF911F910F918F
:10274000FF90EF90DF90CF90BF90AF909F908F90D1
:102750007F906F9009946F927F928F929F92AF9229
:10276000BF92CF92DF92EF92FF920F931F93CF937E
:10277000DF935C01EB016A01490138018701DC014B
:10278000ED91FC916217730719F5641675062CF02C
:10279000962D872D3A01C92ED82E96012619370974
:1027A0002F5F3F4F048CF58DE02DA301BE01C501C5
:1027B0000995DF91CF911F910F91FF90EF90DF90DE
:1027C000CF90BF90AF909F908F907F906F90089523
:1027D0004615570591F42617370724F0892D4B012C
:1027E000C22FD82F9E01281939092F5F3F4F068C21
:1027F000F78DE02DA601B401DACF0284F385E02D38
:102800000995D501ED91FC910488F589E02D8301AE
:102810009401A601BE01C5010995D501ED91FC9178
:102820000688F789E02DC501DF91CF911F910F91A7
:10283000FF90EF90DF90CF90BF90AF909F908F90E0
:102840007F906F900994EF92FF920F931F93DC019A
:102850001A960D911C911B9718962D913C911997E2
:10286000ED91FC9100A0F1A1E02D7B0150E040E052
:1028700070E060E009951F910F91FF90EF9008952F
:102880004F925F926F927F928F929F92AF92BF9280
:10289000CF92DF92EF92FF920F931F93CF93DF932C
:1028A0006C012B015A0139014801DC01ED91FC91C9
:1028B0000284F385E02D0995E201640C751CD601B4
:1028C000ED91FC91C615D7055CF40088F189E02DE7
:1028D00087019401A501BE01C60109952196EFCF9C
:1028E0000688F789E02DC601DF91CF911F910F91E6
:1028F000FF90EF90DF90CF90BF90AF909F908F9020
:102900007F906F905F904F9009948F929F92AF92BB
:10291000BF92CF92DF92EF92FF920F931F93CF93CC
:10292000DF93EC015B014A016901E881F9810284CE
:10293000F385E02D099595012C0D3D1D21503109A0
:10294000E881F9810488F589E02D78018401A401EA
:10295000B501CE010995E881F9810688F789E02D56
:10296000CE01DF91CF911F910F91FF90EF90DF90FB
:10297000CF90BF90AF909F908F9009948F929F922D
:10298000AF92BF92CF92DF92EF92FF920F931F937D
:10299000CF93DF93EC015B014A0169017801E88183
:1029A000F9810284F385E02D0995C80CD91C8601B4
:1029B00001501109E881F9810488F589E02D95011C
:1029C000A401B501CE010995E881F9810688F7894E
:1029D000E02DCE01DF91CF911F910F91FF90EF90ED
:1029E000DF90CF90BF90AF909F908F900994EF921F
:1029F000FF920F931F93DC01ED91FC9100A0F1A1D8
:102A0000E02D09951F910F91FF90EF9008950F937E
:102A10001F93DC01ED91FC91068CF78DE02D09955B
:102A20001F910F9108950F931F93DC01ED91FC917D
:102A3000048CF58DE02D09951F910F910895DC010F
:102A4000ED91FC910084F185E02D09942F923F9245
:102A50004F925F926F927F928F929F92AF92BF92AE
:102A6000CF92DF92EF92FF920F931F93CF93DF935A
:102A700000D000D000D0CDB7DEB73C016A013E8364
:102A80002D83FC82EB825801A41AB50AB7FE03C05D
:102A9000B194A194B1088D809E80861A970A97FE02
:102AA00003C09194819491088A149B045CF0902F48
:102AB000812F0D811E819D838E839C2D8D2D6B0119
:102AC000692F782F0C151D055CF09D818E817E830A
:102AD0006D83692F782F902F812F8601C92ED82ED4
:102AE0001601201A310A2B012D813E81421A530A08
:102AF00057FE03C0519441945108710137FE03C041
:102B00003FEFE31AF30AF594E7948D819E818617CF
:102B100097075CF5A1E0B0E0BA83A983C016D1069F
:102B20004CF1D301ED91FC910484F585E02D2B81CE
:102B30003C81A8016D817E818A149B041CF04D812B
:102B40005E81B801C3010995E418F508F7FE0AC0D3
:102B50002D813E8189819A81280F391F3E832D83E3
:102B6000E20CF31C0F5F1F4FD9CF2FEF3FEF3A83DB
:102B70002983D4CF26960FB6F894DEBF0FBECDBF03
:102B8000DF91CF911F910F91FF90EF90DF90CF9049
:102B9000BF90AF909F908F907F906F905F904F907D
:102BA0003F902F900895089590E080E00895EF926F
:102BB000FF920F931F93F12CE12C06E110E023E22A
:102BC00030E048E151E06AE570E08EE393E00E9476
:102BD000450A82E2E82EFF24F39408E710E02CE295
:102BE00031E044E650E068E171E084E690E00E9464
:102BF000C50E1F910F91FF90EF90089510928102E2
:102C00001092800210927F02109278021092770246
:102C1000109272021092710210926C0210926B026A
:102C20001092790210927A0210927B0210927C022A
:102C30001092730210927402109275021092760232
:102C400010926D0210926E0210926F02109270023A
:102C500080917D0290917E028530910554F58230FD
:102C600091059CF5009771F18130910541F141503A
:102C7000510950931201409311018530910544F59B
:102C8000823091058CF5009761F18130910531F129
:102C90002150310930930F0120930E0185309105A9
:102CA00034F58230910564F5009721F589E090E0D4
:102CB00021C085309105D9F64FE550E0D8CF41E0ED
:102CC00050E0D5CF49E050E0D2CF42E050E0CFCF46
:102CD00085309105E9F628E630E0DACF21E030E0F2
:102CE000D7CF29E030E0D4CF22E030E0D1CF85301B
:102CF000910549F0019790930C0180930B01089581
:102D000082E090E0F7CF89E490E0F4CF0E94312395
:102D1000FB0101900020E9F73197AF01461B570BEB
:102D2000DC01ED91FC910280F381E02D0994CF92BA
:102D3000DF92EF92FF920F931F93CF93DF93EC01FB
:102D40006A017B01C114D104E104F10431F4C12C06
:102D500042E1D42E4AE7E42EF12C8FA987FD07C06B
:102D600061E00E94220661E08FA90E94F40561E003
:102D700088AD0E94220661E088AD0E94F4058DA90D
:102D80008111A3C040E052E16AE770E0C416D506A5
:102D9000E606F70640F476956795579547958F5F59
:102DA0008630A1F787E0982F906A969599A3809531
:102DB00081708AA31BA21CA21DA21EA21FB7F89499
:102DC00080915902811127C0E3EEFAE08491E5EC8D
:102DD000FAE09491E82FF0E0EE0FFF1FED56F54F6B
:102DE000A591B491EC91E92321F461E08AE00E947D
:102DF000F40561E08AE00E9422068CB580618CBDFA
:102E00008CB580648CBD61E08DE00E94220661E09B
:102E10008BE00E942206809159028F5F80935902B5
:102E20001FBF8EA987FD21C061E00E94220661E0DC
:102E30008EA90E94F40564E670E080E090E00E94B4
:102E4000780660E08EA90E94F40564E670E080E0F8
:102E500090E00E94780661E08EA90E94F40568EC7B
:102E600070E080E090E00E9478068EA987FF0DC098
:102E700020E050E040E061E0CE010E94EB0C66E90A
:102E800070E080E090E00E94780608E615E0C80156
:102E90000196F8016491662309F463C00E5F1F4F29
:102EA000FC01F490EF2CE894E7F82E2DA801CE0158
:102EB0000E94EB0C0E0D111DF7FEE9CF66E970E0E4
:102EC00080E090E00E947806E2CF09ED1AE0F12C54
:102ED0008130B9F461E08AA50E94220660E08AA5EB
:102EE0000E94F40561E08CA50E94220660E08CA59A
:102EF0000E94F4058BA587FD94CF60E00E94220616
:102F000090CFF8018491E82FF0E0EE0FFF1FE1531E
:102F1000F54F859194912F8D38A12817390741F4E9
:102F200061E08F2D0E94220660E08F2D0E94F40543
:102F3000F3940F5F1F4FF4E1FF12E3CF61E08EA522
:102F40000E94220661E08EA50E94F4058FA587FDF0
:102F500068CF61E00E94220661E08FA50E94F4051F
:102F600060CF80EF90E09987888780E491E09B872D
:102F70008A87DF91CF911F910F91FF90EF90DF90A3
:102F8000CF9008951F93CF93DF9385ED8093BC007E
:102F90008091EB019091EC01A091ED01B091EE01D7
:102FA0000796A11DB11D23E0B695A7959795879526
:102FB0002A95D1F72091BC0024FD03C01092330262
:102FC00052C04091EB015091EC016091ED01709184
:102FD000EE01452B462B472B69F30097A105B10560
:102FE00041F02AE22A95F1F700C00197A109B10941
:102FF000E1CF8091EA01C1E0C093E901882399F112
:10300000D091B8001091BA008091BC008A7B809367
:10301000BC0060E082E10E94F40560E083E10E9470
:10302000F40510923302C09335021092340261E02D
:1030300082E10E94F40561E083E10E94F405809141
:10304000B9008E7F8093B9008091B9008D7F809305
:10305000B90088E48093B80085E48093BC001093A5
:10306000BA00D093B800DF91CF911F9108951F92BD
:103070000F920FB60F9211242F933F938F939F932C
:10308000AF93BF938091980290919902A0919A0278
:10309000B0919B023091970223E0230F2D3758F512
:1030A0000196A11DB11D20939702809398029093E1
:1030B0009902A0939A02B0939B0280919C029091F6
:1030C0009D02A0919E02B0919F020196A11DB11D8B
:1030D00080939C0290939D02A0939E02B0939F02C6
:1030E000BF91AF919F918F913F912F910F900FBE04
:1030F0000F901F90189526E8230F0296A11DB11D71
:10310000D2CF1F920F920FB60F9211242F933F939D
:103110004F935F936F937F938F939F93AF93BF93DF
:10312000EF93FF9380EA92E00E943407FF91EF91C2
:10313000BF91AF919F918F917F916F915F914F91CF
:103140003F912F910F900FBE0F901F9018951F92D7
:103150000F920FB60F9211242F938F939F93EF939B
:10316000FF93E091B002F091B1028081E091B6024C
:10317000F091B70282FD1BC090818091B9028F5FF0
:103180008F732091BA02821741F0E091B902F0E00A
:10319000E056FD4F958F8093B902FF91EF919F917B
:1031A0008F912F910F900FBE0F901F9018958081D7
:1031B000F4CF1F920F920FB60F9211242F933F93CB
:1031C0004F935F936F937F938F939F93AF93BF932F
:1031D000EF93FF938091B900887F803609F44AC04D
:1031E000F0F5883209F4A5C018F5803109F499C0CA
:1031F000B8F4882309F4F5C0883009F492C0FF912F
:10320000EF91BF91AF919F918F917F916F915F915E
:103210004F913F912F910F900FBE0F901F901895D7
:10322000883109F486C0803251F78093320214C08D
:10323000803409F49BC040F48033B9F38833F9F645
:103240008093320285ECAEC0803509F483C08835A6
:1032500009F494C0883499F60E94C217D0CF8839F7
:1032600009F48AC038F5883729F050F4883611F00F
:10327000803729F683E0809333021092310255C0E3
:10328000883809F479C0803919F0803809F0B7CF4F
:1032900080913102803208F06FC0E091310281E00C
:1032A0008E0F809331028091BB00F0E0EF5EFD4F06
:1032B00080833BC0803B39F0D0F4803A09F477C07A
:1032C000883A09F09CCF84E0809333021092100278
:1032D00010920F02F0E0E0E0099580910F02811159
:1032E0000FC081E080930F021092EF0109C0803C73
:1032F00009F4A8CF883C09F4A5CF883B09F07FCF1B
:10330000E091100281E08E0F80931002F0E0E15115
:10331000FE4F80818093BB009091100280910F023C
:1033200029C0809158028093BB0085EC8093BC003B
:1033300066CF9091570280915602981758F5E09108
:10334000570281E08E0F80935702F0E0EA5CFD4F58
:103350008081E9CFE091570281E08E0F8093570280
:103360008091BB00F0E0EA5CFD4F808390915702B2
:10337000809156029817C8F285E8D8CFE09157029D
:1033800081E08E0F809357028091BB00F0E0EA5CF1
:10339000FD4F80838091350281115ECF81E0809363
:1033A000340284EA8093BC001092330228CF85EC6B
:1033B0008093BC001092330280913102803230F44D
:1033C000E0913102F0E0EF5EFD4F1082609131023A
:1033D00070E081E192E0F0E0E0E0099510923102C6
:1033E0000ECF1092320238CFE0EAF2E0138212825E
:1033F00088EE93E0A0E0B0E084839583A683B78352
:1034000088E191E09183808385EC90E095878487C3
:1034100084EC90E09787868780EC90E0918B808B9E
:1034200081EC90E0938B828B82EC90E0958B848B87
:1034300086EC90E0978B868B118E128E138E148EF5
:10344000AEE3B3E013961C921E92129720EF30E089
:1034500015963C932E93149780E491E017969C93D5
:103460008E93169719963C932E9318971B969C93C0
:103470008E931A9756961C9256971D961C921E92E2
:103480001C971F961C921E921E9781E055968C9356
:10349000559754968C9354972FEF3FEF53963C9348
:1034A0002E93529751963C932E93509757968C9308
:1034B000579758961C9258975A961C921E92599755
:1034C000D5961C92D59789E0D6968C93D69788E0AE
:1034D000D7968C93D7978AE0D8968C93D897DA961C
:1034E0001C921E92D997DC961C921E92DB97DD9659
:1034F0001C92DD97DE961C92DE9710927D0310924F
:103500007E0310927F03109280038DE393E09096E8
:103510009C938E935F97E3EEFAE0E491F0E0EE0F78
:10352000FF1FE153F54F859194915E969C938E9386
:103530005D97E5ECFAE08491D3968C93D397E1EE16
:10354000FAE0E491F0E0EE0FFF1FE153F54F259113
:1035500034915C963C932E935B97E3ECFAE0E49114
:10356000D196EC93D197E095D296EC93D297E82F31
:10357000E095D496EC93D4978AE291E08D939C9356
:103580000895CF93DF93CDB7DEB7AA970FB6F8941F
:10359000DEBF0FBECDBF789484B5826084BD84B594
:1035A000816084BD85B5826085BD85B5816085BD3E
:1035B00080916E00816080936E00109281008091F6
:1035C000810082608093810080918100816080937E
:1035D0008100809180008160809380008091B100A3
:1035E00084608093B1008091B00081608093B000CE
:1035F00080917A00846080937A0080917A00826062
:1036000080937A0080917A00816080937A00809123
:103610007A00806880937A001092C10061E083E0B4
:103620000E94220661E085E00E94220661E086E0B9
:103630000E942206E091B002F091B102B2E0DB2ECE
:10364000D082E091AC02F091AD021082E091AE0226
:10365000F091AF028FEC80831092B802E091B40237
:10366000F091B50286E08083E091B202F091B3025E
:10367000808180618083E091B202F091B302808109
:1036800088608083E091B202F091B302808180680B
:103690008083E091B202F091B30280818F7D8083BC
:1036A00066E571E080EA92E00E94881661E771E0C9
:1036B00080EA92E00E94881640E050E0BA018EE372
:1036C00093E00E94971670E060E08EE393E00E9422
:1036D0002314EE24EA94FE2C0CE211E02CED30E0F1
:1036E0004AE050E06AE070E08EE393E00E944C1301
:1036F00000EEE02EFF24FA9406EE10E022ED30E01A
:103700004FE050E06FE070E08EE393E00E944C13D6
:1037100004EE10E020ED30E040E150E060E170E0C8
:103720008EE393E00E944C138FEF9FEF9093510331
:103730008093500390934F0380934E03D092520393
:10374000D09253032FEF3FEF43E050E061E370E08E
:1037500085E290E00E94E80D02E310E010934B0335
:1037600000934A038EE190E090934D0380934C03C5
:1037700064E771E08EE393E00E94881610934B0398
:1037800000934A0310934D0300934C0362E871E0E9
:103790008EE393E00E9488162FEF3FEF43E050E066
:1037A00067E570E085E290E00E94E80D10934B031E
:1037B00000934A0380E590E090934D0380934C037F
:1037C0006FE871E08EE393E00E9488162FEF3FEFE1
:1037D00043E050E065E770E085E290E00E94E80D8C
:1037E00010934B0300934A038EE690E090934D03B1
:1037F00080934C0369E971E08EE393E00E948816A0
:103800002FEF3FEF43E050E063E970E085E290E0A6
:103810000E94E80D10934B0300934A038CE890E05C
:1038200090934D0380934C0364EA71E08EE393E040
:103830000E9488162FEF3FEF43E050E061EB70E00D
:1038400085E290E00E94E80D10934B0300934A0339
:103850008AEA90E090934D0380934C0361EB71E012
:103860008EE393E00E9488162FEF3FEF43E050E095
:103870006BED70E085E290E00E94E80D10934B0341
:1038800000934A0388EC90E090934D0380934C039F
:103890006DEB71E08EE393E00E94881610934B036A
:1038A00000934A038CED90E090934D0380934C037A
:1038B00065EC71E08EE393E00E9488160E94D715B4
:1038C0008BE2E82EFF24F39406E410E024E231E0DA
:1038D00048E350E06DE171E086E490E00E94C50E9F
:1038E00008E310E024E231E04AE250E06DE171E0EB
:1038F00088E390E00E94C50E94E2E92EFF24F39441
:103900000EEA10E02BE231E040EA50E06DE171E0B8
:1039100080EA90E00E94C50E0CEB10E02BE231E053
:103920004EEA50E06DE171E08EEA90E00E94C50E33
:10393000DD24D39420E4422E22E4522E2FE0622E86
:10394000712C0E94AA0600915A0210915B022091EC
:103950005C0230915D02601771078207930708F4DB
:1039600060C030E020E047E050E06BE071E0809123
:103970000801909109010E94E80DEE24EA94FE2CC2
:1039800003E010E028EC30E049E051E064E170E051
:103990008EE393E00E94450A40911101509112017B
:1039A00020910E0130910F0160910B0170910C017B
:1039B000421753070CF437C2461757070CF430C2AE
:1039C00020917702309178022150310964E6629F9C
:1039D000C001639F900D1124BA010E949122CB0176
:1039E00077FF02C090E080E00A96880F991F9093BD
:1039F0000901809308012FEF3FEF45E050E06BE0B5
:103A000071E00E94E80D0E94AA0668517C4F8F4F1A
:103A10009F4F60935A0270935B0280935C02909375
:103A20005D020E94AA0600915E0210915F02209141
:103A30006002309161026017710782079307D0F12D
:103A400080911301882309F40CC2F12CE12C06E1CA
:103A500010E023E230E048E151E06AE570E08EE3F7
:103A600093E00E94450AEE24EA94FE2C04E110E063
:103A700027E030E048E151E064E670E08EE393E057
:103A80000E94450A27E030E048E151E06DE670E031
:103A90008EE393E00E94450A0E94AA066C507E4F76
:103AA0008F4F9F4F60935E0270935F02809360021E
:103AB000909361020E94AA0600916402109165022F
:103AC00020916602309167026017710782079307A1
:103AD000A0F100917D0210917E028091620290918E
:103AE00063028230910509F4FFC10CF0BDC100975B
:103AF00009F4D4C1019709F4E6C10230110509F4B3
:103B000067C20CF024C20115110509F43BC2013053
:103B1000110509F44CC210936302009362020E94E3
:103B2000AA066C507E4F8F4F9F4F60936402709334
:103B30006502809366029093670284E00E94CB0541
:103B4000019709F078C2D092680282E00E94CB050A
:103B5000019709F07DC2D092690287E00E94CB05EF
:103B6000019709F08CC2D0926A02809113018823D8
:103B700009F48AC080918102882319F18091800222
:103B80008823F9F080917F028823D9F06EEC71E0F0
:103B900080EA92E00E94881661E771E080EA92E094
:103BA0000E94881680917D0290917E02019666E0C7
:103BB00070E00E94912290937E0280937D020E9489
:103BC000FE158091810281111DC00E94AA060091FC
:103BD000790210917A0220917B0230917C02601769
:103BE00071078207930770F00091770210917802B5
:103BF00080911101909112010817190709F057C21D
:103C0000D09281028091800281111DC00E94AA067B
:103C10000091730210917402209175023091760226
:103C2000601771078207930770F00091710210917D
:103C3000720280910E0190910F010817190709F087
:103C40002AC3D092800280917F0281111DC00E9400
:103C5000AA0600916D0210916E0220916F023091C0
:103C60007002601771078207930770F000916B0272
:103C700010916C0280910B0190910C0108171907AB
:103C800009F0A9C3D0927F0280911301882309F41F
:103C9000BAC0009187021091880201151105B9F18F
:103CA0000E94530620918302309184024091850244
:103CB00050918602621773078407950740F1F090D0
:103CC00082026F2D83E00E94F405FD24F0928202AF
:103CD0000E9453066AA37BA38CA39DA3000F111F10
:103CE000980150E040E0C301B2010E94C7228AA1BE
:103CF0009BA1ACA1BDA1280F391F4A1F5B1F2093B8
:103D0000830230938402409385025093860200918F
:103D10008E0210918F0201151105B9F10E94530610
:103D200020918A0230918B0240918C0250918D0239
:103D3000621773078407950740F1F09089026F2D91
:103D400085E00E94F405FD24F09289020E9453064A
:103D50006AA37BA38CA39DA3000F111F980150E0C1
:103D600040E0C301B2010E94C7228AA19BA1ACA17D
:103D7000BDA1280F391F4A1F5B1F20938A02309371
:103D80008B0240938C0250938D020091950210910A
:103D9000960201151105B9F10E9453062091910276
:103DA00030919202409193025091940262177307EE
:103DB0008407950740F1F09090026F2D86E00E94F5
:103DC000F405FD24F09290020E9453066AA37BA39F
:103DD0008CA39DA3000F111F980150E040E0C30188
:103DE000B2010E94C7228AA19BA1ACA1BDA1280F4C
:103DF000391F4A1F5B1F2093910230939202409318
:103E0000930250939402A0E0B0E0AB2B09F499CD5B
:103E10000E942007882309F494CD0E94000091CDD0
:103E2000241735078CF02617370774F0409171027C
:103E30005091720241505109A4E6A49FC001A59F70
:103E4000900D1124B901C9CD20916B0230916C0203
:103E500021503109B4E6B29FC001B39F900D1124E7
:103E6000BCCD0E94D71518CE8430910509F45EC0F0
:103E70000CF44BC0059709F040CE30E020E046E05E
:103E800050E06BED70E085E290E00E94E80D2FEFCE
:103E90003FEF43E050E06BED70E010C030E020E019
:103EA00046E050E061E370E085E290E00E94E80DBA
:103EB0002FEF3FEF43E050E061E370E085E290E0F8
:103EC0000E94E80D1ACE30E020E046E050E067E5C1
:103ED00070E085E290E00E94E80D2FEF3FEF43E0B5
:103EE00050E067E570E0EACF30E020E046E050E0E7
:103EF00065E770E085E290E00E94E80D2FEF3FEF6C
:103F000043E050E065E770E0D9CF30E020E046E0E4
:103F100050E063E970E085E290E00E94E80D2FEF49
:103F20003FEF43E050E063E970E0C8CF30E020E0CD
:103F300046E050E061EB70E085E290E00E94E80D21
:103F40002FEF3FEF43E050E061EB70E0B7CF04307C
:103F5000110509F45FC00CF44CC00530110509F0DF
:103F6000DACD20EE37E046E050E06BED70E085E220
:103F700090E00E94E80D2FEF3FEF43E050E06BED43
:103F800070E010C020EE37E046E050E061E370E002
:103F900085E290E00E94E80D2FEF3FEF43E050E014
:103FA00061E370E085E290E00E94E80DB4CD20EE80
:103FB00037E046E050E067E570E085E290E00E947F
:103FC000E80D2FEF3FEF43E050E067E570E0EACF08
:103FD00020EE37E046E050E065E770E085E290E0F3
:103FE0000E94E80D2FEF3FEF43E050E065E770E0FF
:103FF000D9CF20EE37E046E050E063E970E085E29B
:1040000090E00E94E80D2FEF3FEF43E050E063E9BE
:1040100070E0C8CF20EE37E046E050E061EB70E0A2
:1040200085E290E00E94E80D2FEF3FEF43E050E083
:1040300061EB70E0B7CF80916802882309F485CDE9
:10404000809113018D2580931301109268027DCD1C
:1040500080916902882309F480CD80917D0290913E
:104060007E02019666E070E00E94912290937E02AB
:1040700080937D020E94FE15109269026ECD8091A0
:104080006A02882309F471CD80917D0290917E02AD
:10409000009759F485E090E090937E0280937D0232
:1040A0000E94FE1510926A0260CD0197F5CF8091B3
:1040B0007D0290917E028230910509F440C0FCF4AB
:1040C000009779F1019709F461C08091100188236C
:1040D00009F461C010928802109287020E94AA0619
:1040E000625E7F4F8F4F9F4F6093790270937A0289
:1040F00080937B0290937C021092100183CD8430D8
:10410000910509F438C04CF10597F9F6C801880FFC
:10411000991FFC01E954F64F208031808D51974F53
:1041200026C0C801880F991FFC01EF57F54F259055
:104130003490FC01EB55F64F85909490C6CFC801A2
:10414000880F991FFC01E358F54F208031808F556F
:10415000964FFC0180809180B8CFC801880F991FCD
:10416000FC01E758F54F208031808F55964FDC01D8
:104170008D909C90AACFC801880F991FFC01EB5825
:10418000F54F208031808F55964FE3CF312C212C75
:10419000912C812C9ACF30928802209287020E9423
:1041A000AA069401092C000C440B550BDC01CB0131
:1041B000820F931FA41FB51F8093790290937A02F8
:1041C000A0937B02B0937C020F5F1F4F1093780285
:1041D00000937702D092100160EE71E080EA92E0E5
:1041E0000E948816C101032C000CAA0BBB0B8AA3EA
:1041F0009BA3ACA3BDA3B7FF34C06DE280EA92E0FD
:104200000E9456072AA13BA14CA15DA15095409563
:10421000309521953F4F4F4F5F4F19A28E010F5D93
:104220001F4FCA01B9012AE030E040E050E00E948F
:10423000A522605DD8016E938D01211531054105E0
:10424000510579F70115110529F0B80180EA92E0CE
:104250000E94881661E771E080EA92E00E94881669
:10426000D1CC2AA13BA14CA15DA119A28E010F5D69
:104270001F4FCA01B9012AE030E040E050E00E943F
:10428000A522605DF80162938F012115310541057A
:10429000510579F7D7CF80917D0290917E028230CF
:1042A000910509F448C0F4F4009799F1019761F180
:1042B00080910D01882309F46BC010928F02109237
:1042C0008E020E94AA06625E7F4F8F4F9F4F6093BF
:1042D0007302709374028093750290937602109229
:1042E0000D01B1CC8430910509F447C0ACF10597BC
:1042F000F9F6C801880F991FFC01E15EF84FC080F4
:10430000B1808F5F974F32C0C12CB12C1FA21EA26B
:10431000CFCFC801880F991FFC01E151F84F2591BB
:104320003491C22EB32EFC01EF52F74F8591949138
:104330009FA38EA3BDCFC801880F991FFC01E3582E
:10434000F54FC080B1808F55964FDC010D90BC9128
:10435000A02DBFA3AEA3ACCFC801880F991FFC014D
:10436000E758F54FC080B1808F55964FFC01019002
:10437000F081E02DFFA3EEA39BCFC801880F991F0A
:10438000FC01EB58F54FC080B1808F55964FDDCFC3
:10439000C0928E02B0928F020E94AA06AEA1BFA167
:1043A0009D01BB0F440B550BDC01CB01820F931F0A
:1043B000A41FB51F8093730290937402A09375029B
:1043C000B09376020F5F1F4F109372020093710239
:1043D000D0920D0138CC80917D0290917E02823086
:1043E000910509F445C0FCF4009781F1019709F4A7
:1043F0006FC080910A01882309F46FC01092960261
:10440000109295020E94AA06625E7F4F8F4F9F4FC7
:1044100060936D0270936E0280936F0290937002AE
:1044200010920A0131CC8430910509F445C094F111
:104430000597F9F6C801880F991FFC01E952FA4F58
:10444000A08021812AA78558994F2FC0C801880FC5
:10445000991FFC01E759F94F25913491A22E3AA7F3
:10446000FC01E35FF84F8591949199A788A7C1CF8C
:10447000C801880F991FFC01E358F54FA080B18156
:10448000BAA78F55964FFC010190F081E02DF9A756
:10449000E8A7AFCFC801880F991FFC01E758F54F77
:1044A000A08021812AA78F55964FDC010D90BC91E9
:1044B000A02DB9A7A8A79DCFC801880F991FFC01FF
:1044C000EB58F54FA080B181BAA78F55964FDBCF3F
:1044D000A12C1AA6E0E3F5E7DACFA0929502FAA59F
:1044E000F09396020E94AA06A8A5B9A59D01BB0F4C
:1044F000440B550BDC01CB01820F931FA41FB51F8A
:1045000080936D0290936E02A0936F02B09370023D
:104510000F5F1F4F10936C0200936B02D0920A0141
:10452000B3CB97FB072E16F4009407D077FD09D084
:104530000E940C2307FC05D03EF4909581959F4F77
:104540000895709561957F4F0895A1E21A2EAA1BD8
:10455000BB1BFD010DC0AA1FBB1FEE1FFF1FA21733
:10456000B307E407F50720F0A21BB30BE40BF50B30
:10457000661F771F881F991F1A9469F760957095B9
:10458000809590959B01AC01BD01CF010895052E4A
:1045900097FB1EF400940E94DE2257FD07D00E9474
:1045A000A52207FC03D04EF40C94DE2250954095D2
:1045B000309521953F4F4F4F5F4F089590958095CF
:1045C000709561957F4F8F4F9F4F08950E94EE2207
:1045D000332312F48A1B9B0B0C94FF22A29FB00181
:1045E000B39FC001A39F700D811D1124911DB29F27
:1045F000700D811D1124911D08950E94EE22B7FFB8
:104600000895821B930B0895B7FF0C9426230E94F4
:104610002623821B930B0895AA1BBB1B51E107C0E5
:10462000AA1FBB1FA617B70710F0A61BB70B881F42
:10463000991F5A95A9F780959095BC01CD010895D1
:10464000EE0FFF1F0590F491E02D09940E94EE22D9
:10465000A59F900DB49F900DA49F800D911D1124D6
:10466000089581E090E0F8940C943623F894FFCFFD
:10467000FFFFFFFFFFFFFFFF14000109000109001A
:1046800001090001000000005607B606E306A30773
:104690001407F2060607000000007A12B606D415C9
:1046A000D3153709D90CA70C3E0CBD0BFE0B2615F4
:1046B000DD0D540D4A0DDB0A4C0BCA0A2314AB1353
:1046C0004C139716A908494C4939333431204172AB
:1046D000717569312D477275706F20536965746506
:1046E000000D0A004E6F636865206465206C756E6E
:1046F0006100656E747265207275696E6173004D3C
:1047000069206C7570697461005061726120456C3C
:104710006973610050617261204164656C696E610A
:104720000053617269617320536F6E670043616E5D
:1047300063696F6E00736F7270726573610054729B
:104740006967676572206E65787420736F6E6700A5
:08475000487A20697320000083
:00000001FF
